:020000040800F2
:1000000000200020B9000008C1260008D5260008FD
:1000100000000000000000000000000000000000E0
:10002000000000000000000000000000C1260008E1
:100030000000000000000000C1260008C1260008E2
:10004000C1260008C1260008C1260008C1260008F4
:10005000C1260008C1260008C1260008C1260008E4
:1000600000000000C1260008C1260008C1260008C3
:10007000C1260008C126000800000000AD040008E9
:1000800000000000C1260008000000000000000081
:10009000C126000800000000C1260008C126000893
:1000A000C1260008C1260008C1260008F121000869
:1000B000C1260008C126000802F07EFA02F040FACC
:1000C000E1235B02180001F0EBFF62B6C04601F0CD
:1000D00099FD024B180002F053F9FEE76443000853
:1000E00080B500AF0A4B0B4A5A60094B00229A6058
:1000F000074B05221A60C046054B1A6880235B0235
:100100001340F9D0024B00221A60C046BD4680BDA4
:1001100010E000E0FF7C000080B582B000AF7860A6
:1001200001E0FFF7DDFF7B685A1E7A60002BF8DCE8
:10013000C046C046BD4602B080BD80B582B000AFAB
:1001400078600A00FB1C1A707B681B68FA1C127826
:100150005200032191400A00D2431A40FB1C1B7835
:100160005B00012199400B001A437B681A60C0466E
:10017000BD4602B080BD80B582B000AF78600A0095
:10018000FB1C1A707B681B68FA1C12785200032152
:1001900091400A00D2431A40FB1C1B785B000221ED
:1001A00099400B001A437B681A60C046BD4602B0F6
:1001B00080BD80B582B000AF78600A00FB1C1A7069
:1001C000FB1C1B7801229A407B689A62C046BD46A0
:1001D00002B080BD80B582B000AF78600A00FB1C21
:1001E0001A70FB1C1B7801229A407B689A61C046FA
:1001F000BD4602B080BD80B582B000AF7860396086
:100200007B683A689A62C046BD4602B080BD80B540
:1002100082B000AF786039607B683A689A61C04606
:10022000BD4602B080BD80B500AF184BDA6A174BEF
:1002300001210A43DA62A023DB0500211800FFF741
:100240007CFFA023DB0501211800FFF776FFA02328
:10025000DB055A68A023DB0503218A435A60A023EB
:10026000DB05DA68A023DB050F218A43DA60A023CF
:10027000DB0500211800FFF79CFFA023DB0501210F
:100280001800FFF796FFC046BD4680BD0010024033
:1002900080B500AFA023DB0500211800FFF79AFF0F
:1002A000C046BD4680BD80B500AFA023DB05002160
:1002B0001800FFF77EFFC046BD4680BD80B500AF89
:1002C000A023DB0501211800FFF784FFC046BD46CF
:1002D00080BD80B500AFA023DB0501211800FFF72A
:1002E00068FFC046BD4680BD80B500AFF023DA018F
:1002F000A023DB0511001800FFF77DFFC046BD46B7
:1003000080BD80B500AFFFF7EFFFA0239A01A023C7
:10031000DB0511001800FFF77AFFC046BD4680BD1F
:1003200080B500AFFFF7E0FFC0239A01A023DB05F3
:1003300011001800FFF76BFFC046BD4680BD80B5B9
:1003400000AFFFF7D1FF9023DA01A023DB051100F6
:100350001800FFF75CFFC046BD4680BD80B500AF0A
:100360004D4BDA6A4C4B01210A43DA624A4B9A6BD5
:10037000494B01210A439A63A023DB050B21180096
:10038000FFF7DBFEA023DB050C211800FFF7D5FEED
:10039000A023DB050D211800FFF7CFFEA023DB050E
:1003A0000E211800FFF7C9FEA023DB055A68A02321
:1003B000DB053A490A405A60A023DB05DA68A0232E
:1003C000DB0537490A40DA60FFF78EFFA023DB0523
:1003D0000F211800FFF7CFFEA023DB05DA68A0236A
:1003E000DB0592009208DA60A023DB055B6A1B0143
:1003F0001A09A023DB05A021C9050A435A628023FC
:10040000DB0500221A608023DB051F229A6280230D
:10041000DB05244ADA628023DB0500225A6280234E
:10042000DB059A698023DB0503218A439A618023D7
:10043000DB059A698023DB0501210A439A61802349
:10044000DB051A6A8023DB050A218A431A628023AE
:10045000DB051A6A8023DB050B210A431A6280231D
:10046000DB05DA688023DB0502210A43DA6080239A
:10047000DB051A688023DB0501210A431A600A4B59
:100480001A68094B802109020A431A6062B6C04605
:10049000C046BD4680BDC04600100240FF87FFFF3A
:1004A000FFFF3FC0FFFF000000E100E080B582B029
:1004B00000AF8023DB051B690222134000D188E0D6
:1004C0008023DB055A6BBB1D1A80A023DB051A694C
:1004D00080231B02134004D1404BBA1D12881A809E
:1004E0006FE03E4B1B889BB2BA1D1288D31A9AB29A
:1004F0003B4B1A803A4B1B889AB296235B009A4278
:1005000010D9374B1B889AB296239B009A4209D286
:10051000344B01221A70344B00221A70334B0022E4
:100520001A704EE02F4B1B78DBB2012B49D12C4BBC
:100530001B889BB2642B15D9294B1B889AB2AF2319
:100540005B009A420ED2294B1B78DBB2DB18DAB281
:10055000264B1A70244B1B78DBB20133DAB2224BE4
:100560001A7023E01E4B1B889BB2214A934217D975
:100570001B4B1B889BB21F4A934211D81B4B1B7805
:10058000DBB2DB18DBB201221343DAB2174B1A706D
:10059000154B1B78DBB20133DAB2134B1A7005E04E
:1005A000104B00221A70104B00221A700E4B1B7851
:1005B000DBB2032B05D9104B01221A70094B002224
:1005C0001A708023DB051A698023DB0502218A4328
:1005D0001A61C046BD4602B080BDC0466000002022
:1005E00062000020640000206500002066000020FA
:1005F0008A0200004B0400006700002080B500AFB5
:10060000144BDA6A134B02210A43DA62124B0021BF
:100610001800FFF792FD104B01211800FFF78DFD28
:100620000D4B5A680C4B03218A435A600A4BDA6817
:10063000094B0F218A43DA60074B00211800FFF7AE
:10064000B8FD054B01211800FFF7B3FDC046BD46BC
:1006500080BDC046001002400004005080B500AFCD
:10066000064B00211800FFF768FD044B002118001D
:10067000FFF79FFDC046BD4680BDC0460004005048
:1006800080B500AF064B01211800FFF756FD044B63
:1006900001211800FFF78DFDC046BD4680BDC04654
:1006A0000004005080B500AF064B00211800FFF792
:1006B00044FD044B00211800FFF78CFDC046BD46E9
:1006C00080BDC0460004005080B500AF064B01213C
:1006D0001800FFF732FD044B01211800FFF77AFDE7
:1006E000C046BD4680BDC0460004005080B500AF86
:1006F000214BDA6A204B02210A43DA621E4B9A6BC5
:100700001D4B802189030A439A631C4B1B681C4ABA
:100710001A401A4B802189010A431A60174B1B6A41
:10072000184A1A40154B802149040A431A62134B98
:100730001B68154A1A40114B802109020A431A60AE
:100740000E4B1B6A1B011A090C4B802149050A43F9
:100750001A620A4B5A68094BC0210A435A60074B78
:100760009A68064BA021C9010A439A60074B084AC0
:100770001A61C046BD4680BD001002400004005012
:10078000FFCFFFFFFFFFFFF0FF3FFFFF00540040E0
:10079000130F427090B583B000AF04000800110041
:1007A000FB1D221C1A70BB1D021C1A707B1D0A1C2B
:1007B0001A701B4B01221A60FB1D1B785A00184B44
:1007C00018490A435A60164B5A68154B8021890113
:1007D0000A435A60C046124B9B6901221340012B09
:1007E000F9D10F4BBA1D12789A62C0460C4B9B6927
:1007F00001221340012BF9D1094B7A1D12789A621C
:10080000C046074B9B6901221340012BF9D10120FF
:10081000FFF782FC01231800BD4603B090BDC0461F
:10082000005400400000020280B582B000AF3A6080
:10083000FB1D021C1A70BB1D0A1C1A70254B0122DD
:100840001A60FB1D1B785A00224B23490A435A6049
:10085000204B5A681F4B802189010A435A60C046C9
:100860001C4B9B6901221340012BF9D1194BBA1D76
:1008700012789A62C046174B9B6901221340012BE4
:10088000F9D10120FFF748FC124B05221A60FB1D2D
:100890001B785A000F4B11490A435A600D4B5A6896
:1008A0000C4B802189010A435A60C046094B9B6961
:1008B00004221340042BF9D1064B5B6ADAB23B6881
:1008C0001A700120FFF728FC01231800BD4602B072
:1008D00080BDC04600540040000001020004010237
:1008E00080B582B000AF3A60FB1D021C1A70BB1DC0
:1008F0000A1C1A702E4B01221A60FB1D1B785A002D
:100900002B4B2C490A435A60294B5A68284B8021AB
:1009100089010A435A60C046254B9B690122134056
:10092000012BF9D1224BBA1D12789A62C046204B96
:100930009B6901221340012BF9D10120FFF7ECFB49
:100940001B4B05221A60FB1D1B785A00184B1A49D5
:100950000A435A60164B5A68154B802189010A4395
:100960005A60C046124B9B6904221340042BF9D1F4
:100970000F4B5B6A9BB21B029AB23B681A80C0465F
:100980000B4B9B6904221340042BF9D1084B5B6A83
:100990009AB23B681B8813439AB23B681A800120C5
:1009A000FFF7BAFB01231800BD4602B080BDC04668
:1009B00000540040000001020004020280B584B02F
:1009C00000AF78600F217B1800221A707B681B78BB
:1009D0007A18C0211800FFF727FF03001A0001232F
:1009E0005340DBB2002B01D0002306E00F23FB189D
:1009F0001B78EE3B5A425341DBB21800BD4604B0AF
:100A000080BD80B582B000AF78600A00FB1C1A7010
:100A10007B681878FB1C1B787F221340DBB21A001E
:100A20008A21FFF7B7FE03001A0001235340DBB20F
:100A3000002B01D0002304E07B68FA1C12781A70A6
:100A400001231800BD4602B080BDB0B584B000AF30
:100A500078600F23FB1800221A700E217B180022E9
:100A60001A707B681B787A1889211800FFF7DCFE62
:100A700003001A0001235340DBB2002B01D00023F6
:100A800097E00E217B181B7801221343DAB27B1802
:100A90001A707B6818787B181B781A008921FFF779
:100AA00079FE03001A0001235340DBB2002B01D072
:100AB00000237EE07B681B780F257C1900228821AB
:100AC0001800FFF767FE030023707B681B78012284
:100AD00080211800FFF75EFE03001A002C003B196E
:100AE0001B781A403B19511E8A411A707B681B788B
:100AF0000122FF211800FFF74DFE03001A003B19E9
:100B00001B781A403B19511E8A411A707B681B786A
:100B1000002200211800FFF73DFE03001A003B19D8
:100B20001B781A403B19511E8A411A707B6818784D
:100B30007B6801331A009121FFF776FE03001A004B
:100B40003B191B781A403B19511E8A411A707B6869
:100B50001B78012200211800FFF71CFE03001A0079
:100B60003B191B781A403B19511E8A411A707B6849
:100B70001B780022FF211800FFF70CFE03001A006B
:100B80003B191B781A403B19511E8A411A707B6829
:100B90001B78002280211800FFF7FCFD03001A00DB
:100BA0003B191B781A403B19511E8A411A703B1998
:100BB0001B781800BD4604B0B0BDB0B584B000AF1E
:100BC00078607B681B780F257C190122FF211800B3
:100BD000FFF7E0FD030023707B681B7800220021F3
:100BE0001800FFF7D7FD03001A002C003B191B78F3
:100BF0001A403B19511E8A411A707B681B780022EB
:100C0000FF211800FFF7C6FD03001A003B191B78EF
:100C10001A403B19511E8A411A707B681B780022CA
:100C200009211800FFF7B6FD03001A003B191B78D5
:100C30001A403B19511E8A411A707B681B780022AA
:100C400010211800FFF7A6FD03001A003B191B78BE
:100C50001A403B19511E8A411A707B681B7800228A
:100C600011211800FFF796FD03001A003B191B78AD
:100C70001A403B19511E8A411A707B681B78012269
:100C800024211800FFF786FD03001A003B191B788A
:100C90001A403B19511E8A411A707B681B78FF224B
:100CA00025211800FFF776FD03001A003B191B7879
:100CB0001A403B19511E8A411A707B681B7800222A
:100CC00075211800FFF766FD03001A003B191B7819
:100CD0001A403B19511E8A411A707B681B78012209
:100CE000FF211800FFF756FD03001A003B191B787F
:100CF0001A403B19511E8A411A707B681B782C22BE
:100D00004E211800FFF746FD03001A003B191B781F
:100D10001A403B19511E8A411A707B681B780022C9
:100D200048211800FFF736FD03001A003B191B7815
:100D30001A403B19511E8A411A707B681B78202289
:100D400030211800FFF726FD03001A003B191B781D
:100D50001A403B19511E8A411A707B681B78002289
:100D6000FF211800FFF716FD03001A003B191B783E
:100D70001A403B19511E8A411A707B681B78092260
:100D800030211800FFF706FD03001A003B191B78FD
:100D90001A403B19511E8A411A707B681B78002249
:100DA00054211800FFF7F6FC03001A003B191B78CA
:100DB0001A403B19511E8A411A707B681B78042225
:100DC00031211800FFF7E6FC03001A003B191B78DD
:100DD0001A403B19511E8A411A707B681B78032206
:100DE00032211800FFF7D6FC03001A003B191B78CC
:100DF0001A403B19511E8A411A707B681B78832266
:100E000040211800FFF7C6FC03001A003B191B78AD
:100E10001A403B19511E8A411A707B681B782522A3
:100E200046211800FFF7B6FC03001A003B191B7897
:100E30001A403B19511E8A411A707B681B780022A8
:100E400060211800FFF7A6FC03001A003B191B786D
:100E50001A403B19511E8A411A707B681B78002288
:100E600027211800FFF796FC03001A003B191B7896
:100E70001A403B19511E8A411A707B681B78062262
:100E800050211800FFF786FC03001A003B191B785D
:100E90001A403B19511E8A411A707B681B78002248
:100EA00051211800FFF776FC03001A003B191B784C
:100EB0001A403B19511E8A411A707B681B78962292
:100EC00052211800FFF766FC03001A003B191B783B
:100ED0001A403B19511E8A411A707B681B78082200
:100EE00056211800FFF756FC03001A003B191B7827
:100EF0001A403B19511E8A411A707B681B783022B8
:100F000057211800FFF746FC03001A003B191B7815
:100F10001A403B19511E8A411A707B681B780022C7
:100F200061211800FFF736FC03001A003B191B78FB
:100F30001A403B19511E8A411A707B681B780022A7
:100F400062211800FFF726FC03001A003B191B78EA
:100F50001A403B19511E8A411A707B681B78002287
:100F600064211800FFF716FC03001A003B191B78D8
:100F70001A403B19511E8A411A707B681B78002267
:100F800065211800FFF706FC03001A003B191B78C7
:100F90001A403B19511E8A411A707B681B78A022A7
:100FA00066211800FFF7F6FB03001A003B191B78B7
:100FB0001A403B19511E8A411A707B681B78012226
:100FC000FF211800FFF7E6FB03001A003B191B780E
:100FD0001A403B19511E8A411A707B681B783222D5
:100FE00022211800FFF7D6FB03001A003B191B78DB
:100FF0001A403B19511E8A411A707B681B781422D3
:1010000047211800FFF7C6FB03001A003B191B78A5
:101010001A403B19511E8A411A707B681B78FF22C7
:1010200049211800FFF7B6FB03001A003B191B7893
:101030001A403B19511E8A411A707B681B780022A6
:101040004A211800FFF7A6FB03001A003B191B7882
:101050001A403B19511E8A411A707B681B78002286
:10106000FF211800FFF796FB03001A003B191B78BD
:101070001A403B19511E8A411A707B681B780A225C
:101080007A211800FFF786FB03001A003B191B7832
:101090001A403B19511E8A411A707B681B78002246
:1010A0007B211800FFF776FB03001A003B191B7821
:1010B0001A403B19511E8A411A707B681B78212205
:1010C00078211800FFF766FB03001A003B191B7814
:1010D0001A403B19511E8A411A707B681B78012205
:1010E000FF211800FFF756FB03001A003B191B787D
:1010F0001A403B19511E8A411A707B681B783422B2
:1011000023211800FFF746FB03001A003B191B7848
:101110001A403B19511E8A411A707B681B780022C5
:1011200042211800FFF736FB03001A003B191B7819
:101130001A403B19511E8A411A707B681B78FF22A6
:1011400044211800FFF726FB03001A003B191B7807
:101150001A403B19511E8A411A707B681B7826225F
:1011600045211800FFF716FB03001A003B191B78F6
:101170001A403B19511E8A411A707B681B78052260
:1011800046211800FFF706FB03001A003B191B78E5
:101190001A403B19511E8A411A707B681B78402205
:1011A00040211800FFF7F6FA03001A003B191B78DC
:1011B0001A403B19511E8A411A707B681B7806221F
:1011C0000E211800FFF7E6FA03001A003B191B78FE
:1011D0001A403B19511E8A411A707B681B781A22EB
:1011E00020211800FFF7D6FA03001A003B191B78DC
:1011F0001A403B19511E8A411A707B681B784022A5
:1012000043211800FFF7C6FA03001A003B191B78A8
:101210001A403B19511E8A411A707B681B780022C4
:10122000FF211800FFF7B6FA03001A003B191B78DC
:101230001A403B19511E8A411A707B681B780322A1
:1012400034211800FFF7A6FA03001A003B191B7897
:101250001A403B19511E8A411A707B681B78442240
:1012600035211800FFF796FA03001A003B191B7886
:101270001A403B19511E8A411A707B681B78012263
:10128000FF211800FFF786FA03001A003B191B78AC
:101290001A403B19511E8A411A707B681B78042240
:1012A00031211800FFF776FA03001A003B191B786A
:1012B0001A403B19511E8A411A707B681B7809221B
:1012C0004B211800FFF766FA03001A003B191B7840
:1012D0001A403B19511E8A411A707B681B780522FF
:1012E0004C211800FFF756FA03001A003B191B782F
:1012F0001A403B19511E8A411A707B681B780422E0
:101300004D211800FFF746FA03001A003B191B781D
:101310001A403B19511E8A411A707B681B780022C3
:10132000FF211800FFF736FA03001A003B191B785B
:101330001A403B19511E8A411A707B681B780022A3
:1013400044211800FFF726FA03001A003B191B7806
:101350001A403B19511E8A411A707B681B78202263
:1013600045211800FFF716FA03001A003B191B78F5
:101370001A403B19511E8A411A707B681B7808225B
:1013800047211800FFF706FA03001A003B191B78E3
:101390001A403B19511E8A411A707B681B7828221B
:1013A00048211800FFF7F6F903001A003B191B78D3
:1013B0001A403B19511E8A411A707B681B78002223
:1013C00067211800FFF7E6F903001A003B191B78A4
:1013D0001A403B19511E8A411A707B681B780422FF
:1013E00070211800FFF7D6F903001A003B191B788B
:1013F0001A403B19511E8A411A707B681B780122E2
:1014000071211800FFF7C6F903001A003B191B7879
:101410001A403B19511E8A411A707B681B78FE22C4
:1014200072211800FFF7B6F903001A003B191B7868
:101430001A403B19511E8A411A707B681B780022A2
:1014400076211800FFF7A6F903001A003B191B7854
:101450001A403B19511E8A411A707B681B78002282
:1014600077211800FFF796F903001A003B191B7843
:101470001A403B19511E8A411A707B681B78012261
:10148000FF211800FFF786F903001A003B191B78AB
:101490001A403B19511E8A411A707B681B78012241
:1014A0000D211800FFF776F903001A003B191B788D
:1014B0001A403B19511E8A411A707B681B78002222
:1014C000FF211800FFF766F903001A003B191B788B
:1014D0001A403B19511E8A411A707B681B78012201
:1014E00080211800FFF756F903001A003B191B78FA
:1014F0001A403B19511E8A411A707B681B78F822EA
:1015000001211800FFF746F903001A003B191B7868
:101510001A403B19511E8A411A707B681B780122C0
:10152000FF211800FFF736F903001A003B191B785A
:101530001A403B19511E8A411A707B681B780122A0
:101540008E211800FFF726F903001A003B191B78BB
:101550001A403B19511E8A411A707B681B78012280
:1015600000211800FFF716F903001A003B191B7839
:101570001A403B19511E8A411A707B681B78002261
:10158000FF211800FFF706F903001A003B191B782A
:101590001A403B19511E8A411A707B681B78002241
:1015A00080211800FFF7F6F803001A003B191B789A
:1015B0001A403B19511E8A411A703B191B781800BA
:1015C000BD4604B0B0BD80B584B000AF78600F23D5
:1015D000FB1800221A707B681B7804220A2118006D
:1015E000FFF7D8F803001A0001235340DBB2002BA9
:1015F00001D000233AE07B681B780F22BA188421BF
:101600001800FFF711F903001A0001235340DBB261
:10161000002B01D0002329E00F217B181B7810221A
:101620009343DAB27B181A707B6818787B181B78A2
:101630001A008421FFF7AEF803001A00012353407B
:10164000DBB2002B01D0002310E07B681B78012265
:101650000B211800FFF79EF803001A0001235340E6
:10166000DBB2002B01D0002300E001231800BD46AF
:1016700004B080BD80B582B000AF78600A00FB1C6A
:101680001A707B681878FB1C1B781A000121FFF781
:1016900081F803001800BD4602B080BD80B582B05D
:1016A00000AF78607B681800FFF787FA03001A0024
:1016B00001235340DBB2002B01D000231BE07B68E9
:1016C0001800FFF780FF03001A0001235340DBB22C
:1016D000002B01D000230EE07B68E8211800FFF703
:1016E000C9FF03001A0001235340DBB2002B01D0D5
:1016F000002300E001231800BD4602B080BDF0B514
:1017000085B000AF78600A00FB1C1A700F23FB182D
:1017100000221A700E23FB1800221A700C23FB18EB
:1017200000221A700D23FB1800221A70FB1C1B7874
:10173000002B02D0012B09D011E00E23FB1801224F
:101740001A700F23FB1841221A7008E00E23FB18B1
:1017500002221A700F23FB1801221A70C0467B6800
:1017600018780E23FB181B781A000121FFF712F8D6
:1017700003001A0001235340DBB2002B01D00023E9
:1017800052E07B6818780F23FB181B781A000021A1
:10179000FFF700F803001A0001235340DBB2002BCF
:1017A00001D0002340E07B681B780D257C190C26B6
:1017B000BA1913211800FFF737F8030023707B19BB
:1017C0001B78002B05D0BB191B781A000723134088
:1017D000E9D00D23FB181B7801225340DBB2002B0C
:1017E00001D0002320E07B681B7801220B21180028
:1017F000FEF7D0FF03001A0001235340DBB2002B99
:1018000001D0002310E07B681B7800220021180023
:10181000FEF7C0FF03001A0001235340DBB2002B88
:1018200001D0002300E001231800BD4605B0F0BD43
:1018300080B582B000AF78607B6800211800FFF7A8
:101840005EFF03001A0001235340DBB2002B01D0DE
:1018500000231CE07B6801211800FFF750FF030004
:101860001A0001235340DBB2002B01D000230EE00D
:101870007B68E8211800FFF7FDFE03001A00012332
:101880005340DBB2002B01D0002300E001231800FD
:10189000BD4602B080BD80B582B000AF78607B6885
:1018A0001800FFF78BF803001A0001235340DBB246
:1018B000002B01D0002327E07B681800FFF7C5F854
:1018C00003001A0001235340DBB2002B01D0002398
:1018D0001AE07B681800FFF7E1FE03001A000123FD
:1018E0005340DBB2002B01D000230DE07B681800D1
:1018F000FFF79EFF03001A0001235340DBB2002BC9
:1019000001D0002300E001231800BD4602B080BDD5
:10191000F0B585B000AF786039600E23FB18002267
:101920001A700D23FB1800221A707B681B780F2594
:101930007C19012280211800FEF72CFF0300237080
:101940007B681B780122FF211800FEF723FF0300AC
:101950001A002C003B191B781A403B19511E8A4172
:101960001A707B681B78002200211800FEF712FF16
:1019700003001A003B191B781A403B19511E8A417B
:101980001A707B6818787B685B781A009121FEF7E3
:1019900001FF03001A003B191B781A403B19511E26
:1019A0008A411A707B681B78012200211800FEF71B
:1019B000F1FE03001A003B191B781A403B19511E17
:1019C0008A411A707B681B780022FF211800FEF7FD
:1019D000E1FE03001A003B191B781A403B19511E07
:1019E0008A411A707B681B78002280211800FEF75C
:1019F000D1FE03001A003B191B781A403B19511EF7
:101A00008A411A703B191B7801225340DBB2002B2C
:101A100001D000237DE07B681B78012200211800A3
:101A2000FEF7B8FE03001A0001235340DBB2002B7F
:101A300001D000236DE07B681B780F257C190E26F2
:101A4000BA1900211800FEF7EFFE030023707B197E
:101A50001B78002B05D0BB191B781A0001231340FB
:101A6000E9D10F23FB181B7801225340DBB2002B76
:101A700001D000234DE07B681B780F257C190D26D3
:101A8000BA1913211800FEF7CFFE030023707B194B
:101A90001B78002B05D0BB191B781A0007231340B5
:101AA000E9D00F23FB181B7801225340DBB2002B37
:101AB00001D000232DE07B681B783A681E211800B6
:101AC000FEF70EFF03001A0001235340DBB2002B88
:101AD00001D000231DE07B681B7801220B21180038
:101AE000FEF758FE03001A0001235340DBB2002B1F
:101AF00001D000230DE03B681B88084A934204D0C4
:101B00003B681B88064A934202D13B68034A1A800D
:101B100001231800BD4605B0F0BDC046FE1F000001
:101B2000FF1F0000B0B584B000AF786039600F24AB
:101B30003B1900221A700C257B1900221A807B6841
:101B40001B781A003968294B180001F02BFA7B68C2
:101B50001B783A19C0211800FEF766FE3B191B7866
:101B60001A00234B1100180001F01CFA7B681B7847
:101B70003A19C1211800FEF757FE3B191B781A00CD
:101B80001C4B1100180001F00DFA7B681B783A1904
:101B9000C2211800FEF748FE3B191B781A00164BAD
:101BA0001100180001F0FEF97B681B787A195121A9
:101BB0001800FEF795FE7B191B881A000F4B1100C9
:101BC000180001F0EFF97B681B787A196121180081
:101BD000FEF786FE7B191B881A00094B11001800BE
:101BE00001F0E0F9C046BD4604B0B0BDA440000815
:101BF000B4400008CC400008E4400008FC40000865
:101C000014410008B0B584B000AF0F243B19002286
:101C10001A700E23FB1800221A700D23FB180022E5
:101C20001A700C23FB1800221A70BB1C00221A80A9
:101C30003B0000221A800B23FB1800221A70E123BC
:101C40005B02180000F02CFAFA235B001800FEF784
:101C500063FAB54B180001F0A5F9B44B180001F078
:101C600007FAB34B180001F003FAB24B180001F069
:101C7000FFF9B14B180001F0FBF9B04B180001F06F
:101C8000F7F9AF4B180001F0F3F9AE4AAE4B110073
:101C9000180001F087F9AD4AAD49AE4B180001F0CC
:101CA00081F9AD4B1B689B68180001F009F8082505
:101CB0007B1929221A707B1900225A703B1D292298
:101CC0001A703B1D00225A70FEF7ADFAFEF746FB74
:101CD000FEF794FCFEF70AFDFEF7C0FCFEF7D0FC11
:101CE0003220FEF719FAFEF7DDFC3220FEF714FA77
:101CF0007B191800FEF762FE031E0DD07B192A2106
:101D00001800FEF77EFE031E06D03C197B19180052
:101D1000FFF7C1FD030023700F23FB181B78002B76
:101D20000FD008243B191B781A008C4B11001800A7
:101D300001F038F98A4A3B1911001800FFF7F2FE4A
:101D400003E0884B180001F093F9834B1B689B68F4
:101D5000180000F0B5FFFEF7B7FC3220FEF7DCF903
:101D60003B1D1800FEF72AFE031E0ED03B1D2B2143
:101D70001800FEF746FE031E07D00E23FC183B1D7D
:101D80001800FFF788FD030023700E23FB181B7853
:101D9000002B0ED03B1D1B781A00734B110018004E
:101DA00001F000F9714A3B1D11001800FFF7BAFE5F
:101DB00003E06F4B180001F05BF9674B1B689B68F1
:101DC000180000F07DFF0F23FB181B78002B0BD0B1
:101DD0000D23FC18BA1C0823FB1811001800FFF78C
:101DE00097FD0300237003E00D23FB1800221A70F7
:101DF0000E23FB181B78002B0AD00C23FC183A008A
:101E00003B1D11001800FFF783FD0300237003E062
:101E10000C23FB1800221A700D23FB181B78002BD3
:101E200006D0BB1C1B88632B02D8FEF731FA01E0F9
:101E3000FEF739FA0C23FB181B78002B06D03B0069
:101E40001B88642B02D9FEF739FA01E0FEF741FA4C
:101E5000484B1B78DBB2002B1DD00B217B18464A68
:101E600012781A70434B00221A707B181B78092BCA
:101E700005D00DDC012B05D0082B06D008E0FEF7BD
:101E800040FA08E0FEF74CFA05E0FEF758FA02E0E7
:101E9000FEF72AFAC0460D23FB181B78002B11D041
:101EA0000C23FB181B78002B0CD0BB1C1B881900C3
:101EB0003B001B881A000B23FB181B782F4801F0EE
:101EC00071F827E00D23FB181B78002B0AD0BB1CF0
:101ED0001B8819000B23FB181A78294B180001F0F6
:101EE00061F817E00C23FB181B78002B0AD03B008D
:101EF0001B8819000B23FB181A78224B180001F0DD
:101F000051F807E00B23FB181A781F4B110018003B
:101F100001F048F8104B1B689B68180000F0D0FED9
:101F20006420FEF7F9F84EE72C410008384100081C
:101F30005C4100087C41000898410008C04100084D
:101F4000F44100082C4200083442000840420008D6
:101F50004C4200085842000810000020704200085F
:101F60008C42000894420008A8420008C4420008BD
:101F7000CC4200086700002066000020E042000814
:101F800004430008244300084443000890B585B08A
:101F900000AF78603960184B1B68002B02D1012319
:101FA0005B4224E00023FB600AE0FB685A1CFA60F5
:101FB0003A68D418114B180000F0ADF903002370F3
:101FC0007B68013B1A00FB68934205D20B4B18005B
:101FD00000F0CCF9031EE8D1FB68002B06D03A686C
:101FE000FB68D31800221A70FB6800E00023180079
:101FF000BD4605B090BDC04600010020680000202D
:1020000080B584B000AF78603960224B1B68002B2C
:1020100002D101235B4238E07B683F2B0BDCC046DA
:102020001D4B180000F0A2F903004022D21A7B6871
:102030009A42F5D302E002235B4226E00023FB60D4
:102040000BE03A68FB68D3181A78134B110018009C
:1020500000F030F9FB680133FB607B68FA689A4254
:10206000EFD30E4B1B68082213400DD10B4B1A689F
:102070000A4B08210A431A60074B180000F04BF97D
:1020800003001A00054B9A6200231800BD4604B0F5
:1020900080BDC04600010020B4000020003801408F
:1020A00080B584B000AF786072B6C046454B002260
:1020B0009A64444B9A6C434B5A64424B5A6C414B62
:1020C0001A64414B00229A643F4B9A6C3E4B5A640F
:1020D0003D4B5A6C3C4B1A643C4B01221A603C4B02
:1020E00000221A603B4BDA6A3A4B01210A43DA625A
:1020F000394BFB607968F86800F044FC0300FB6032
:10210000A023DB059A68A023DB058021C9020A43CE
:102110009A60A023DB055A68A023DB052F490A40FB
:102120005A60A023DB051B682D4A1A40A023DB055B
:10213000802109030A431A60A023DB055A6AA02301
:10214000DB0540210A435A62A023DB051B68254AB0
:102150001A40A023DB05802189030A431A60A023CB
:10216000DB055A6AA023DB058021C9000A435A62B5
:10217000184B5A6B174B8021C9010A435A631A4BFB
:102180001A68194B6C210A431A60174B00225A60D7
:10219000154B00229A60144BFA68DA60124B1A68E9
:1021A000114B01210A431A60104B1A680F4B802112
:1021B00009050A431A6062B6C046C046BD4604B06F
:1021C00080BDC04668000020B4000020000100204F
:1021D00004010020001002400048E801FFFDFFFF5D
:1021E000FFFFF3FFFFFFCFFF0038014000E100E0F9
:1021F00080B500AF084BDB698022134001D000F0AE
:1022000025F8054BDB692022134001D000F006F8C9
:10221000C046BD4680BDC0460038014080B500AF15
:10222000074B5B6ADAB2074B1100180000F042F866
:10223000031E02D0044B01221A60C046BD4680BD79
:1022400000380140680000200401002080B500AF84
:10225000164B180000F08AF8031E08D0134B180024
:1022600000F059F803001A00114B9A621BE0104B62
:102270001A680F4B08218A431A600D4BDB69402214
:10228000134005D00A4B1A6A094B40210A431A62CF
:10229000074BDB698022134005D0054B9A69044B3C
:1022A00010210A439A61C046BD4680BDB40000209B
:1022B0000038014080B582B000AF78600A00FB1C96
:1022C0001A707B681A6C7B685B6C9A4205D17B68DC
:1022D0009B6C002B01D0012319E072B6C0467B68CD
:1022E0001B6C591C7A6811647A68F91C0978D154FE
:1022F0007B689B6C5A1C7B689A647B681B6C402BC8
:1023000002D17B6800221A6462B6C046002318001E
:10231000BD4602B080BD80B584B000AF78607B68F8
:102320009B6C002B01D100231CE072B6C0467B6879
:102330005B6C591C7A6851640F22BA187968CB5CBF
:1023400013707B685B6C402B02D17B6800225A645F
:102350007B689B6C5A1E7B689A6462B6C0460F23EA
:10236000FB181B781800BD4604B080BD80B582B054
:1023700000AF78607B689B6C1800BD4602B080BDE2
:1023800080B582B000AF78600B4B1B68002B09D181
:1023900001235B420BE07B685A1C7A601900012024
:1023A000FFF72EFE7B681B78002BF4D1002318006A
:1023B000BD4602B080BDC0460001002080B582B09D
:1023C00000AF0200FB1D1A70FB1D19000120FFF772
:1023D00017FEC046BD4602B080BD80B500AF044BBD
:1023E0001800FFF798FF03001800BD4680BDC046E7
:1023F00068000020B0B584B000AF786039601E4B33
:102400001B68002B02D101235B4231E00023FB60FB
:102410000B23FB1800221A7017E0C046174B180058
:10242000FFF7A4FF031EF9D00B257C19134B1800EE
:10243000FFF771FF03002370FB685A1CFA601A0053
:102440007B689B187A1912781A703B68013BFA680E
:102450009A4204DA0B23FB181B780D2BDDD1FB68A5
:10246000002B04DDFB687A68D31800221A70FB6821
:102470001800BD4604B0B0BD000100206800002077
:1024800090B583B000AFFC1DFFF7A7FF03002370DA
:10249000FB1D1B781800FFF791FFFB1D1B78180030
:1024A000BD4603B090BDB0B584B000AF7860396070
:1024B000214B1B68002B02D101235B4237E0002334
:1024C000FB600B23FB1800221A701DE0C0461B4B5B
:1024D0001800FFF74BFF031EF9D00B257C19174B93
:1024E0001800FFF718FF030023702C003B191B781E
:1024F0001800FFF763FFFB685A1CFA601A007B683C
:102500009B183A1912781A703B68013BFA689A4294
:1025100004DA0B23FB181B780D2BD7D1FB68002B9B
:1025200004DDFB687A68D31800221A70FB68180073
:10253000BD4604B0B0BDC0460001002068000020C8
:1025400080B582B000AF164B7B60164B3B6007E056
:102550007A68131D7B603B68191D396012681A6028
:102560003A68114B9A42F3D304E03B681A1D3A6073
:1025700000221A603A680D4B9A42F6D30C4B3B602E
:1025800004E03B681A1D3A601B6898473A68094B9B
:102590009A42F6D3C046C046BD4602B080BDC04692
:1025A00014440008000000206000002064020020A5
:1025B000144400081444000880B500AF3B4B1A686F
:1025C0003A4B01210A431A60C046384B1B6804226B
:1025D0001340FAD0354B0122DA60C046334BDB683A
:1025E0000C221340042BF9D1314B1A68304B0221D5
:1025F0000A431A602E4B1A682D4B01210A431A60B8
:102600002A4B9A6B294B802149050A439A63294B2F
:10261000802212011A60C046264B5B6810221340CC
:10262000FAD1224BDA68214B23490A40DA601F4B6A
:10263000DA681E4B8821C9030A43DA601B4A1B4B28
:10264000D268DA60194A194BD268DA60174A174B18
:10265000D268DA60154B1A68144B18490A401A60A0
:10266000124B1A68114B802149040A431A60C04674
:102670000E4B1A6880239B041340F9D00B4BDA6889
:102680000A4B03218A43DA60084BDA68074B0321BF
:102690000A43DA60C046054BDB680C2213400C2B62
:1026A000F9D1C046C046BD4680BDC04600100240BC
:1026B0000020024000700040FFFF02FFFFFFFFFE0E
:1026C00080B500AF024B1800FFF75AFEFEE7C04688
:1026D0008C43000880B500AF024B1800FFF750FE96
:1026E000FEE7C046BC43000880B582B000AF78600A
:1026F000FEE780B582B000AF786001235B4218002E
:10270000BD4602B080BD80B584B000AFF860B9604E
:102710007A60044B0C221A6001235B421800BD460C
:1027200004B080BD1401002080B500AF034B0B2224
:102730001A6001235B421800BD4680BD14010020D1
:1027400080B582B000AF786039603B68802292012A
:102750005A6000231800BD4602B080BD80B500AFAE
:1027600001231800BD4680BD80B582B000AF7860FF
:102770003960044B16221A6001235B421800BD46E3
:1027800002B080BD1401002080B582B000AF786037
:102790003960044B1F221A6001235B421800BD46BA
:1027A00002B080BD1401002080B584B000AFF86095
:1027B000B9607A6000231800BD4604B080BD80B5C2
:1027C00082B000AF786039603B68802292015A6025
:1027D00000231800BD4602B080BD80B582B000AFB6
:1027E000786001235B421800BD4602B080BD80B511
:1027F00082B000AF7860044B02221A6001235B4272
:102800001800BD4602B080BD1401002080B582B022
:1028100000AF7860044B0A221A6001235B42180063
:10282000BD4602B080BDC0461401002080B582B014
:1028300000AF78607B68022B01D8012303E0044BD2
:1028400009221A6000231800BD4602B080BDC046B0
:102850001401002080B586B000AF7860124B7B6118
:10286000124B3B61124B1B68002B02D1104B7A6953
:102870001A600F4B1B68FB600D4B1A687B68D318FE
:102880003A699A4205D20B4B0C221A6001235B4233
:1028900006E0074B1A687B68D218054B1A60FB6884
:1028A0001800BD4606B080BD640200200010002064
:1028B000100100201401002080B588B000AFF8603E
:1028C000B9607A600023BB61FB68002B22D1002332
:1028D000FB611AE0FFF781FD03001A0017217B1846
:1028E0001A70BB685A1CBA607A181278D2B21A7081
:1028F000BB690133BB617B181B78DBB20A2B01D1AA
:10290000BB690EE0FB690133FB61FA697B689A429F
:10291000E0DB05E0054B09221A6001235B4200E081
:10292000BB691800BD4608B080BDC0461401002038
:1029300080B586B000AFF860B9607A60FB68013B93
:10294000012B11D800237B6109E0BB685A1CBA60D7
:102950001B781800FFF732FD7B6901337B617A69D0
:102960007B689A42F1DB05E0054B09221A600123DE
:102970005B4200E07B681800BD4606B080BDC046E3
:102980001401002003460B437FD4002243088B42EE
:1029900074D303098B425FD3030A8B4244D3030BE6
:1029A0008B4228D3030C8B420DD3FF22090212BAAB
:1029B000030C8B4202D31212090265D0030B8B4227
:1029C00019D300E0090AC30B8B4201D3CB03C01A11
:1029D0005241830B8B4201D38B03C01A5241430BEC
:1029E0008B4201D34B03C01A5241030B8B4201D3DC
:1029F0000B03C01A5241C30A8B4201D3CB02C01A47
:102A00005241830A8B4201D38B02C01A5241430ABE
:102A10008B4201D34B02C01A5241030A8B4201D3AD
:102A20000B02C01A5241CDD2C3098B4201D3CB0154
:102A3000C01A524183098B4201D38B01C01A524103
:102A400043098B4201D34B01C01A524103098B4207
:102A500001D30B01C01A5241C3088B4201D3CB00F2
:102A6000C01A524183088B4201D38B00C01A5241D5
:102A700043088B4201D34B00C01A5241411A00D285
:102A800001465241104670475DE0CA0F00D04942EE
:102A9000031000D34042534000229C4603098B425E
:102AA0002DD3030A8B4212D3FC22890112BA030AE6
:102AB0008B420CD3890192118B4208D38901921168
:102AC0008B4204D389013AD0921100E08909C309ED
:102AD0008B4201D3CB01C01A524183098B4201D3EF
:102AE0008B01C01A524143098B4201D34B01C01ADA
:102AF000524103098B4201D30B01C01A5241C30852
:102B00008B4201D3CB00C01A524183088B4201D3C0
:102B10008B00C01A5241D9D243088B4201D34B00DB
:102B2000C01A5241411A00D20146634652415B101D
:102B3000104601D34042002B00D5494270476346FE
:102B40005B1000D3404201B5002000F005F802BD43
:102B50000029F8D016E770477047C046F7B50C2239
:102B60008B5E05000C001A0757D44A68002A02DC65
:102B70000A6C002A4FDDE76A002F4CD0002280212A
:102B80002E682A601A0049010A400B4234D0626D57
:102B9000A3895B0706D56368D21A636B002B01D04B
:102BA000236CD21A00232800E76A216AB8470C2355
:102BB000E25E431C06D129681D2947D8294BCB402A
:102BC000DB0743D50023636023692360D20405D566
:102BD000431C02D12B68002B00D16065616B2E6015
:102BE000002918D023004433994202D0280000F075
:102BF000A1FB002363630EE001232800216AB8478C
:102C00000200431CC4D12B68002BC1D01D2B01D066
:102C1000162B1AD12E6000201DE00E69002EFAD06E
:102C20000F680E60BA1B019200229B0700D14A690F
:102C3000A260019B002BEEDDA36A32001F0028007A
:102C4000019B216AB847002806DCA28940230120A5
:102C50001343A3814042FEBD019B36181B1A01930A
:102C6000E7E7C046010040200B6970B505000C0085
:102C7000002B02D11D00280070BD002804D0036A7B
:102C8000002B01D100F032F90C22A35E002BF1D011
:102C9000626ED20704D49B0502D4A06D00F043FB02
:102CA00028002100FFF75AFF636E0500DB07E2D41E
:102CB000A3899B05DFD4A06D00F03BFBDBE70000A0
:102CC000010010B5002805D1054A0649064800F064
:102CD00041F910BD054B1868FFF7C6FFF9E7C0467C
:102CE00004000020692C00081400002010000020BF
:102CF000002310B504000360436083608181436654
:102D0000C281036143618361190008225C3000F0D5
:102D1000AFFA0B4B246263620A4BA3620A4BE36275
:102D20000A4B23630A4B9C4205D00A4B9C4202D0BB
:102D3000094B9C4203D12000583000F0F0FA10BD3E
:102D400085300008B1300008E9300008153100086E
:102D50001801002080010020E801002010B5034A7E
:102D60000349044800F0F6F810BDC04604000020F6
:102D7000692C00081400002041680B4B10B50400BA
:102D8000994201D0FFF770FFA168084B994202D029
:102D90002000FFF769FFE168054B994202D020004F
:102DA000FFF762FF10BDC04618010020800100201F
:102DB000E80100204B6E10B5DB0705D48B899B051D
:102DC00002D4886D00F0AFFA002010BD4B6E10B534
:102DD000DB0705D48B899B0502D4886D00F0A9FA26
:102DE000002010BD10B5094B094A04211A6009489A
:102DF0000022FFF77DFF012209210748FFF778FF36
:102E0000022212210548FFF773FF10BD5002002077
:102E10005D2D00081801002080010020E80100203D
:102E200010B5024800F07FFA10BDC0465B020020DA
:102E300010B5024800F07DFA10BDC0465B020020CC
:102E4000F8B50700FFF7ECFF254B1B68002B01D1FD
:102E5000FFF7C8FF234EB4687368013B10D535688F
:102E6000002D3AD1D6213800490000F0CFFA0400F5
:102E7000A84226D13060FFF7DBFF0C233B601CE04B
:102E80000C22A55E002D1AD12000174B5830E360AC
:102E9000656600F044FAFFF7CBFF20000822290006
:102EA0002560A560656025616561A5615C3000F005
:102EB000DFF96563A563A564E5642000F8BD6834A7
:102EC000CBE70423D02205602900250043600C30A5
:102ED000A060520000F0CCF934602E00BBE7C04681
:102EE00050020020040000200100FFFF10B5040084
:102EF000FFF796FF236A002B02D0FFF799FF10BD62
:102F0000044B2362044B1B68002BF6D1FFF76AFFCA
:102F1000F3E7C046792D00085002002010B5FFF7F6
:102F20007FFF0020024A034900F014F810BDC0469C
:102F300004000020B52D000810B5044A0449002003
:102F400000F008F8FFF774FF10BDC0460400002031
:102F5000CD2D0008F7B51400002600900191A5685A
:102F60006768013F04D52468002CF8D13000FEBD0D
:102F7000AB89012B08D90E22AB5E013304D02900A6
:102F80000098019B984706436835EAE70EB403B5FD
:102F900003AB04CB8168019300F000FB02B008BCD6
:102FA00003B018470FB407B5054904AB086804CB54
:102FB0008168019300F0F2FA03B008BC04B018472E
:102FC00010000020036A70B505000E008468002B15
:102FD00001D1FFF78BFF636EDB0705D4A3899B0547
:102FE00002D4A06D00F09FF9A3891B0702D52369C5
:102FF000002B1ED12100280000F0DEF8002818D098
:1030000001256D42636EDB0705D4A3899B0502D4BD
:10301000A06D00F08EF9280070BD002B04DAA269C3
:10302000934217DB0A2915D023685A1C22601970B5
:103030000136A3683178013BA3600029EDD18B42B2
:103040000FDA220028000A3100F06AF80130D7D0E8
:103050000A25D7E72200280000F062F80130E7D106
:10306000CEE723685A1C22600A221A70F0E700009B
:1030700010B5034B01001868FFF7A4FF10BDC04650
:103080001000002070B50C000E25495F00F01EF9FD
:10309000002803DB636D1B18636570BDA389024ABA
:1030A0001340A381F9E7C046FFEFFFFF0020704700
:1030B000F8B51F008B8905000C001600DB0505D54F
:1030C0000E23C95E0022022300F0ECF8A389054A12
:1030D00028001340A38132000E23E15E3B0000F084
:1030E00009F9F8BDFFEFFFFF70B50C000E25495F31
:1030F00000F0D8F80C22A35E421C03D1044A13400E
:10310000A38170BD802252011343A3816065F8E75B
:10311000FFEFFFFF10B50E23C95E00F0B1F810BD40
:10312000F8B505000F001400002804D0036A002B36
:1031300001D1FFF7DBFEA369A360A3891B0702D5BA
:103140002369002B09D12100280000F035F8002860
:1031500003D0012676423000F8BD23692068C01AEA
:103160006369834205DC21002800FFF77DFD00280C
:10317000EFD1A3680130013BA3602368FEB25A1C63
:1031800022601F706369834204D0A389DB07E2D504
:103190000A2EE0D121002800FFF766FD0028DAD0D2
:1031A000D7E7000010B5034B0A0001001868FFF7CD
:1031B000B7FF10BD100000202C4B70B5050018683B
:1031C0000C00002804D0036A002B01D1FFF78EFE0B
:1031D0000C22A35E1A0721D4DA0607D409222A603A
:1031E000402201201343A381404238E05A0712D500
:1031F000616B002908D023004433994202D0280093
:1032000000F098F8002363632422A38993430022EB
:1032100062602269226008221343A3812369002B84
:103220000BD1A0238022A1899B0092000B409342E6
:1032300003D02100280000F0D3FD0C22A35E012161
:103240001A000A400B420BD00022A260626952426F
:10325000A26100202269824201D11A06C0D470BD49
:10326000990700D46269A260F3E7C046100000200D
:1032700003008218934200D1704719700133F9E7B7
:10328000002370B5064C050008002360FFF731FAF3
:10329000431C03D12368002B00D02B6070BDC046B7
:1032A0001401002070B50500080011000022064C32
:1032B00022601A00FFF778FA431C03D12368002B21
:1032C00000D02B6070BDC0461401002070B5050011
:1032D000080011000022064C22601A00FFF7ECFAE9
:1032E000431C03D12368002B00D02B6070BDC04667
:1032F0001401002070B50500080011000022064CE2
:1033000022601A00FFF714FB431C03D12368002B33
:1033100000D02B6070BDC04614010020704770477C
:103320007047704770477047012070470120704711
:103330007047704770B50500002910D00C1F236836
:10334000002B00DAE418280000F0E0F81D4A1368AA
:10335000002B05D163601460280000F0DFF870BD19
:10336000A34208D9206821188B42F3D119685B6801
:1033700009182160EEE71A005B68002B01D0A34218
:10338000F9D911685018A0420BD1206809185018BB
:1033900011608342E0D118685B6841181160536086
:1033A000DAE7A04202D90C232B60D5E72068211868
:1033B0008B4203D119685B6809182160636054600F
:1033C000CAE7C0466002002070B50F4C0E002168AD
:1033D0000500002902D100F073FD206031002800B3
:1033E00000F06EFD431C03D101246442200070BD37
:1033F0000323C41C9C43A042F8D0211A280000F0EB
:103400005FFD0130F2D1EFE75C020020F7B5032247
:10341000CB1C9343083305001F000C2B34D20C2720
:10342000B94233D8280000F071F8374E33681C00D9
:10343000002C2FD139002800FFF7C6FF0400431CE1
:103440005FD134680094009B002B4AD19C4252D03B
:1034500023682800E3180099019300F031FD019BD7
:10346000834248D123682800FF1A3900FFF7ACFFD8
:10347000013040D02368DB19236033685A68002A82
:1034800033D1009B336019E0002BC9DA0C232B6089
:103490000020FEBD2168C91B20D40B290AD9E219DE
:1034A0002760A34204D1326063681160536005E075
:1034B0005A60F9E76268A3420ED13260280000F03A
:1034C0002DF8200007220B30231D9043C21A98428A
:1034D000DFD01B1AA350DCE75A60EFE723006468D3
:1034E000A6E7009C63680093ADE71A005B68A342FF
:1034F000FBD10023DAE70C2328002B6000F00EF844
:10350000C6E70760DAE7C0466002002010B502484F
:10351000FFF709FF10BDC0465802002010B5024851
:10352000FFF707FF10BDC04658020020936810B592
:10353000013B9360002B04DA9469A34207DB0A295C
:1035400005D01368581C10601970080010BDFFF7F3
:10355000E7FD0100F9E7F8B506000F001400D518E3
:10356000AC4201D1002007E021783A003000FFF79B
:10357000DDFF0134431CF3D1F8BD002310B5140066
:1035800092689A4205D0220000F0A0FA00220300BF
:10359000A26000221800626010BD0000F0B59FB06C
:1035A0000E0017001C000290002804D0036A002BB4
:1035B00001D1FFF79BFC736EDB0705D4B3899B0534
:1035C00002D4B06DFFF7AFFEB3891B0702D5336994
:1035D000002B13D131000298FFF7EEFD00280DD02B
:1035E000736EDB0703D5012040421FB0F0BDB389E5
:1035F0009B05F8D4B06DFFF79CFEF4E7002306AD01
:103600006B6120336B761033AB7605943C002378E6
:10361000002B01D0252B43D1E31B0393BC420BD0DD
:103620003A0031000298FFF796FF013000D1A4E084
:103630006B69039A9B186B612378002B00D19CE087
:103640000122002352426A6002AA533201342B60E5
:10365000EB60AB601370AB65544F052221783800E6
:1036600000F040FC2A68611C00281BD1D30603D55A
:103670002023532702A8C355130703D52B23532711
:1036800002A8C35523782A2B13D000200A21EB6807
:103690002278303A092A4FD9002812D0EB6010E086
:1036A0000134B4E70123C01B834013430C002B609B
:1036B000D2E7059B181D1B680590002B36DBEB60DD
:1036C0000C0023782E2B0CD163782A2B39D1059B43
:1036D00002341A1D1B680592002B01DA01235B429C
:1036E0006B60334F03223800217800F0FBFB002889
:1036F00006D04023C01B83402A68013413432B604B
:10370000217806222B48297600F0ECFB002843D0D4
:103710002948002827D10722059B07339343083304
:1037200005936B69671C1B186B616FE75B42EB606D
:10373000022313432B60C3E74B43012001349B1842
:10374000A6E700230A201A0001346B602178303983
:10375000092903D9002BC4D06A60C2E74243012380
:1037600001345218F2E705AA009229003200134BE7
:10377000029800E000BF431CD3D1736EDB0705D471
:10378000B3899B0502D4B06DFFF7D3FDB3895B0607
:1037900000D528E7686928E705AA009229003200C9
:1037A000064B029800F088F8E5E7C046E0430008C1
:1037B000E6430008EA43000800000000573500080F
:1037C00010B5044C13000A0001002068FFF7E6FE64
:1037D00010BDC04610000020F7B5160001938A689E
:1037E0000B690C000090934200DA13002200336052
:1037F00043321278002A01D00133336023689B06DC
:1038000002D53368023333602268062315001D4059
:103810001A4227D0230043331B785A1E9341226853
:10382000920630D4220001990098089D4332A8479F
:10383000013025D00622236800251340042B05D132
:103840003368E568ED1AEB43DB171D40A368226976
:10385000934201DD9B1AED180026B54220D10020CD
:1038600010E00135E36832689B1AAB42D2DD2200DA
:10387000012301990098089F1932B8470130F0D10F
:1038800001204042FEBD3020E11843310870210084
:103890005A1C45310978A218433202331170C1E72E
:1038A0002200012301990098089F1A32B84701307D
:1038B000E6D00136D1E70000F0B58BB00793059054
:1038C00006920A7E0C004331109B0391782A09D896
:1038D000622A0BD8002A00D1BAE07A490491582A0A
:1038E00000D18EE0250042352A7022E010006338B6
:1038F0001528F7D800F042FB16001F00F6FFF6FF70
:10390000F6FFF6FF1F00F6FFF6FFF6FFF6FF9F003B
:1039100035007E00F6FFF6FFB000F6FF3500F6FF3B
:10392000F6FF820025001A684235111D19601368E0
:103930002B7001239EE01A682068111D196005068E
:1039400001D5166803E04006FBD50023D65E002EA5
:1039500003DA2D23039A764213705A4B0A270493F5
:1039600013E01A68216840CA080602D4490600D547
:10397000B6B21A60237E534A0A2704926F2B00D1F5
:10398000023F2300002243331A706368A360002BB8
:1039900006DB04212268039D8A43226033430CD056
:1039A000039D3000390000F079FB049B013D5B5C16
:1039B0002B70330006009F42F3D9082F09D12368EA
:1039C000DB0706D5626823699A4202DC3023013D99
:1039D0002B70039B5B1B2361079B210000930598C1
:1039E000069B09AAFFF7F8FE013048D101204042AA
:1039F0000BB0F0BD202221680A43226078223249B0
:103A00000491210045310A701968226840C91006E6
:103A100002D4500600D5B6B21960D30702D52023D0
:103A200013432360002E01D01027AAE72022236829
:103A300093432360F8E71A682568101D61691860D0
:103A400013682E0601D5196002E06D06FBD51980BA
:103A50000023039D2361BFE71A68111D19601568D3
:103A600000212800626800F03DFA002801D0401BC8
:103A70006060636823610023039A1370ACE72A0037
:103A8000236906990598079DA8470130AED02368A1
:103A90009B0715D4099BE0689842A9DA1800A7E7AC
:103AA0002200012306990598079E1932B04701307C
:103AB0009CD00135E368099A9B1AAB42F0DCE9E738
:103AC0000025F7E7F143000802440008F0B59368C9
:103AD00087B00C0002900492002B02D1002007B0A6
:103AE000F0BD8B891B0756D50B69002B53D0049B67
:103AF0001B6801930C22A35E02221E001640134293
:103B00006FD1012201211A400B4200D1A5E0300003
:103B100037000396002F00D110E100280AD13A00A7
:103B20000A21039800F0DEF97E1C002802D0039BD6
:103B30000130C61A0596BE4200D905972068226951
:103B40006369904200D802E1A568059A5D19AA420E
:103B500000DCFCE003992A0000F07BF923682100D7
:103B60005B1902982360FFF77FF8002870D10120CD
:103B7000761B05D121000298FFF776F8B04267D195
:103B8000049B049A9B685B1B9360A7D0039B7F1BDD
:103B90005B190393BEE721000298FFF70DFB002895
:103BA000A5D0012040429AE7019B1E685D6808335A
:103BB0000193002DF8D0724A2B00954200D91300D2
:103BC0003200A76A216A0298B847002840DD049BAA
:103BD000049A9B681B1A936000D17FE736182D1A50
:103BE000E7E700263500E4E7019B1B680393019B90
:103BF0005F6808330193002FF6D00C22A35E802269
:103C00009200A6682068134268D00596BE4261D82B
:103C10009022D20013425FD02169421A03200592FC
:103C200062694243D50FAD18059A6D10501CC0193A
:103C30002A00A84201D9050002005B053CD511000D
:103C40000298FFF7E3FB061E0AD10C23029A1360C9
:103C50004023A2891343A381A3E717000392CAE775
:103C6000059A216900F049F9A289464B1A40802340
:103C70001343A381059B2661F61826603E0065610B
:103C8000ED1AA5603D000597059A0399206800F09C
:103C9000E0F8A368059A9B1BA36023689B18236028
:103CA000049B049A9B685B1B936000D116E7039BFF
:103CB0007F1B5B1903939EE7029800F027F9061E0D
:103CC000D8D121690298FFF735FB8022A38993435D
:103CD000A381BAE73E00D5E73D00D5E723698342DB
:103CE00002D36569BD4216D9BE4200D93E003200FA
:103CF000039900F0AEF8A36822689B1B9219350067
:103D0000A3602260002BCBD121000298FEF7ACFF0C
:103D10000028C5D09CE7802338001B069F4200D3B3
:103D200019482900FEF72EFE2B00A66A4343039A8A
:103D3000216A0298B047051EB2DC89E7019B00208A
:103D40001B680393019B5F6808330193E2E6059AC1
:103D5000934208DCA56A039A216A0298A847051EC7
:103D600000DD04E774E7059A039900F072F8059AFC
:103D7000A36815009B1AA36023689B182360F6E6CE
:103D800000FCFF7F7FFBFFFFFFFFFF7F70B50E0092
:103D90001D000E23C95E140096B000290CDA8021A4
:103DA0000B00B2891340114214D18022D2000020AE
:103DB0002B60226016B070BD6A4600F05DF80028E6
:103DC000EDDBF022019B12021340044A9B185A4279
:103DD0005341EAE700234022E9E7C04600E0FFFF45
:103DE000F7B502258B8906000C001D4206D0230082
:103DF00047332360236101236361F7BD6A4601AB4A
:103E0000FFF7C4FF009F30003900FFF7FFFA0C22D4
:103E1000A35E002806D19A05EFD4032293431D43E5
:103E2000A581E4E780221343A381019B20602061E8
:103E30006761002BE1D030000E23E15E00F02EF828
:103E40000028DAD00323A2899A43023B1343A381BB
:103E5000D3E710B5884202D98B18984209D30023C2
:103E60009A4208D0CC5CC4540133F9E7013A8B5C28
:103E70008354002AFAD110BD002370B5064C05000A
:103E8000080011002360FEF75BFC431C03D123688C
:103E9000002B00D02B6070BD14010020002370B5F2
:103EA000064C050008002360FEF7C0FC431C03D14C
:103EB0002368002B00D02B6070BDC0461401002089
:103EC000002370B5064C050008002360FEF7C2FC15
:103ED000431C03D12368002B00D02B6070BDC0466B
:103EE00014010020C9B28218904201D1002070470D
:103EF00003788B42FBD00130F6E7002310B59A42DD
:103F000000D110BDCC5CC4540133F8E7F7B506000E
:103F10000C001500002905D11100FFF777FA040005
:103F20002000FEBD002A03D1FFF704FA2C00F7E7BA
:103F300000F01CF80700854202D84308AB42EFD3DB
:103F400029003000FFF762FA0190002801D1019C9E
:103F5000E6E72A00BD4200D93A0021000198FFF7A8
:103F6000CCFF21003000FFF7E5F9F0E70B1F1B68DD
:103F7000181F002B01DA0B58C018704703B47146A4
:103F8000490840004900095E49008E4403BC70475F
:103F9000002243088B4274D303098B425FD3030A88
:103FA0008B4244D3030B8B4228D3030C8B420DD39B
:103FB000FF22090212BA030C8B4202D31212090229
:103FC00065D0030B8B4219D300E0090AC30B8B4267
:103FD00001D3CB03C01A5241830B8B4201D38B0315
:103FE000C01A5241430B8B4201D34B03C01A5241BA
:103FF000030B8B4201D30B03C01A5241C30A8B42FD
:1040000001D3CB02C01A5241830A8B4201D38B02E7
:10401000C01A5241430A8B4201D34B02C01A52418B
:10402000030A8B4201D30B02C01A5241CDD2C309FD
:104030008B4201D3CB01C01A524183098B4201D379
:104040008B01C01A524143098B4201D34B01C01A64
:10405000524103098B4201D30B01C01A5241C308DC
:104060008B4201D3CB00C01A524183088B4201D34B
:104070008B00C01A524143088B4201D34B00C01A37
:104080005241411A00D20146524110467047FFE7A3
:1040900001B50020FEF760FD02BDC0460029F7D043
:1040A00076E7704725732040203078253032580D50
:1040B0000A00000020205265672830784330293AF2
:1040C000203078253032780D0A000000202052651B
:1040D000672830784331293A203078253032780DFE
:1040E0000A00000020205265672830784332293AC0
:1040F000203078253032780D0A00000020205265EB
:10410000672830783531293A203078253034780DD9
:104110000A00000020205265672830783631293A9D
:10412000203078253034780D0A0D0A001B5B324AA6
:104130001B5B313B3148000053544D33324C30351A
:1041400031206475616C20564C35334C3058202B2F
:1041500020495220726F626F740D0000544F463137
:104160002058534855543D5042302C20544F46322D
:104170002058534855543D5042310D00544F46206D
:104180004932433A205042363D53434C2C20504252
:10419000373D5344410D00004C4544313D504130C2
:1041A00020283C313030206D6D292C204C45443284
:1041B0003D50413120283E313030206D6D290D00B9
:1041C0004D6F746F72733A20504131312F5041312D
:1041D00032206C6566742C20504131332F504131B0
:1041E000342072696768742C2049523D5041313542
:1041F0000D000000495220636F6D6D616E64733A6B
:104200002053544F503D307830204C4546543D307B
:1042100078312052494748543D30783820464F5233
:10422000574152443D3078390D0000006D61696E90
:104230002E63000046696C653A2025730D0A000064
:1042400031373A30393A3330000000004D61722086
:104250003230203230323600436F6D70696C6564E5
:104260003A2025732C2025730D0A0D0A000000004A
:10427000544F463120696E6974204F4B2061742081
:104280003078253032580D0A00000000544F463176
:1042900000000000544F463120696E697420464189
:1042A000494C45440D000000544F463220696E6968
:1042B00074204F4B206174203078253032580D0A1D
:1042C00000000000544F463200000000544F4632B8
:1042D00020696E6974204641494C45440D00000038
:1042E00044313A253475206D6D202044323A25340E
:1042F00075206D6D202049523A3078253031580DA7
:104300000000000044313A253475206D6D202044B2
:10431000323A45525220202049523A3078253031E5
:10432000580D000044313A45525220202044323A80
:10433000253475206D6D202049523A307825303172
:10434000580D000044313A45525220202044323A60
:1043500045525220202049523A3078253031580DAC
:10436000000000000D0A52657475726E6564206667
:10437000726F6D206D61696E28292E20205379732C
:1043800074656D2073746F702E000000496E746543
:10439000727275707420776974686F7574206861C3
:1043A0006E646C65722028495352292E202053795F
:1043B0007374656D2073746F702E000048617264B1
:1043C000204661756C7420696E74657272757074C4
:1043D0002E202053797374656D2073746F702E00D6
:1043E000232D302B2000686C4C00656667454647DE
:1043F0000030313233343536373839414243444561
:1044000046003031323334353637383961626364CF
:0444100065660000DD
:104414000C0100200000000003000000180100202F
:10442400140000200000000018010020800100207A
:10443400E80100200000000000000000000000006F
:104444000000000000000000000000000000000068
:104454000000000000000000000000000000000058
:104464000000000000000000000000000000000048
:04000005080000B936
:00000001FF
