:100000000C9434000C9451000C9451000C94510049
:100010000C9451000C9451000C9451000C9451001C
:100020000C9451000C9451000C9451000C9451000C
:100030000C9451000C9451000C9451000C945100FC
:100040000C9451000C9451000C9451000C945100EC
:100050000C9451000C9451000C9451000C945100DC
:100060000C9451000C94510011241FBECFEFD8E026
:10007000DEBFCDBF12E0A0E0B1E0E0E5F0E102C0FC
:1000800005900D92A232B107D9F722E0A2E2B2E0C8
:1000900001C01D92A932B207E1F70E949D040C94A1
:1000A00026080C9400001092B9008093B8000895BF
:1000B00084EA8093BC008091BC0087FFFCCF089548
:1000C00084E98093BC008091BC0084FDFCCF08953E
:1000D0008093BB0084E88093BC008091BC0087FFC4
:1000E000FCCF0895811551F084EC8093BC00809181
:1000F000BC0087FFFCCF8091BB00089584E8F5CF5A
:10010000CF93DF9300D00F92CDB7DEB789836A8398
:100110007B830E94580082E50E94680089810E94CA
:1001200068000E9460000E94580083E50E946800F9
:1001300080E00E947200EA81FB8180830E9460005F
:1001400081E00F900F900F90DF91CF910895CF93A2
:10015000DF9300D00F92CDB7DEB789836A837B83AC
:100160000E94580082E50E94680089810E94680010
:100170000E9460000E94580083E50E94680081E0B0
:100180000E947200EA81FB811082818380E00E94DC
:100190007200EA81FB8120813181280F311D20838B
:1001A00031830E94600081E00F900F900F90DF91EB
:1001B000CF910895CF93DF9300D0CDB7DEB7898379
:1001C0006A830E94580082E50E94680089810E942B
:1001D00068008A810E9468000E94600081E00F90A0
:1001E0000F90DF91CF910895CF93DF9300D00F92BE
:1001F000CDB7DEB719821A828AE090E00E941A0514
:10020000BE016D5F7F4F80EC0E9480008B811F924A
:100210008F938EE091E09F938F930E940405BE011F
:100220006D5F7F4F81EC0E9480008B811F928F93C6
:1002300081E291E09F938F930E940405BE016D5F60
:100240007F4F82EC0E9480008B811F928F9384E30A
:1002500091E09F938F930E940405BE016F5F7F4FD3
:1002600081E50E94A7008A818F9389818F9387E41B
:1002700091E09F938F930E940405BE016F5F7F4FB3
:1002800081E60E94A7008A818F9389818F938AE5F6
:1002900091E09F938F930E9404050FB6F894DEBF00
:1002A0000FBECDBF8AE090E00F900F900F90DF91CE
:1002B000CF910C941A0580E091E0809325029093F1
:1002C0002602519A50981092C50080E18093C40094
:1002D000E1ECF0E0808188608083808180618083B0
:1002E00086E08093C200E0EC808182608083089584
:1002F0009091C00095FFFCCF8093C6000895CF93E6
:10030000DF930F92CDB7DEB789838A3019F48DE081
:100310000E94780189810E94780180E090E00F902E
:10032000DF91CF9108958091C00087FFFCCF80912D
:10033000C60008958091C00087FB882780F9089542
:10034000CF93DF93EC018881811103C0DF91CF91BE
:10035000089521960E947801F6CF1F93CF93DF93E3
:100360000F92CDB7DEB7198261E011E4019711F465
:1003700062E011E081E00E94DA00811102C080E0B9
:100380001FC0612F80E00E94DA008115C1F3BE0119
:100390006F5F7F4F83E10E948000811581F3898127
:1003A0008770A9F361E08BE00E94DA00811539F3D0
:1003B00060E080E00E94DA00982F81E09115F9F268
:1003C0000F90DF91CF911F9108950F931F93CF93BB
:1003D000DF9300D000D0CDB7DEB719828E010F5F5A
:1003E0001F4FB80180EC0E9480000B831C83811595
:1003F00051F089818E3E39F41982B80189E80E9452
:100400008000811102C080E015C26981616069834A
:1004100089E80E94DA008115B1F360E088E80E9463
:10042000DA00082F61E080E80E94DA00182F61E00E
:100430008FEF0E94DA00182360E080E00E94DA006B
:10044000182362E272E081E90E948000182361E0D3
:1004500080E00E94DA00182360E08FEF0E94DA004B
:10046000182360E080E80E94DA0021E030E001110A
:1004700001C020E0812382239323892B21F261E0B4
:100480008FEF0E94DA008A8360E080E00E94DA0049
:10049000182F60E08FEF0E94DA00182360E089E0F7
:1004A0000E94DA00182360E080E10E94DA0018233D
:1004B00060E081E10E94DA00182361E084E20E949A
:1004C000DA0018236FEF85E20E94DA00182360E05B
:1004D00085E70E94DA00182361E08FEF0E94DA00BE
:1004E00018236CE28EE40E94DA00182360E088E4AE
:1004F0000E94DA00182360E280E30E94DA001823E9
:1005000060E08FEF0E94DA00182369E080E30E9428
:10051000DA00182360E084E50E94DA00182364E022
:1005200081E30E94DA00182363E082E30E94DA008C
:10053000182363E880E40E94DA00182365E286E469
:100540000E94DA00182360E080E60E94DA00182397
:1005500060E087E20E94DA00182366E080E50E94EE
:10056000DA00182360E081E50E94DA00182366E9CA
:1005700082E50E94DA00182368E086E50E94DA002E
:10058000182360E387E50E94DA00182360E081E623
:100590000E94DA00182360E082E60E94DA00182345
:1005A00060E084E60E94DA00182360E085E60E949D
:1005B000DA00182360EA86E60E94DA00182361E078
:1005C0008FEF0E94DA00182362E382E20E94DA00D1
:1005D000182364E187E40E94DA0018236FEF89E4AE
:1005E0000E94DA00182360E08AE40E94DA001823EF
:1005F00060E08FEF0E94DA0018236AE08AE70E9429
:10060000DA00182360E08BE70E94DA00182361E229
:1006100088E70E94DA00182361E08FEF0E94DA0079
:10062000182364E383E20E94DA00182360E082E486
:100630000E94DA0018236FEF84E40E94DA00182386
:1006400066E285E40E94DA00182365E086E40E94F1
:10065000DA00182360E480E40E94DA00182366E0E0
:100660008EE00E94DA0018236AE180E20E94DA003C
:10067000182360E483E40E94DA00182360E08FEF1F
:100680000E94DA00182363E084E30E94DA00182352
:1006900064E485E30E94DA00182361E08FEF0E9492
:1006A000DA00182364E081E30E94DA00182369E08D
:1006B0008BE40E94DA00182365E08CE40E94DA00E3
:1006C000182364E08DE40E94DA00182360E08FEFC5
:1006D0000E94DA00182360E084E40E94DA00182304
:1006E00060E285E40E94DA00182368E087E40E9453
:1006F000DA00182368E288E40E94DA00182360E038
:1007000087E60E94DA00182364E080E70E94DA009E
:10071000182361E081E70E94DA0018236EEF82E778
:100720000E94DA00182360E086E70E94DA001823AE
:1007300060E087E70E94DA00182361E08FEF0E94F3
:10074000DA00182361E08DE00E94DA00182360E0EF
:100750008FEF0E94DA00182361E080E80E94DA003F
:10076000082F012368EF81E00E94DA00182F102380
:1007700061E08FEF0E94DA00182361E08EE80E94AA
:10078000DA00182361E080E00E94DA00182360E0BC
:100790008FEF0E94DA00182360E080E80E94DA0000
:1007A00021E030E09A81911101C020E08123822371
:1007B0009323892B09F427CE198264E08AE00E94F2
:1007C000DA00811509F41FCE6B817C8184E80E94D8
:1007D0008000811509F417CE69816F7E698384E8F2
:1007E0000E94DA00811509F40ECE61E08BE00E94D0
:1007F000DA00811509F407CE68EE81E00E94DA0084
:10080000811509F400CE80E090E00E94AD018115D1
:1008100009F4F9CD81E090E00E94AD01811509F461
:10082000F2CD68EE81E00E94DA00982F81E0911508
:1008300009F4E9CD0F900F900F900F90DF91CF91B9
:100840001F910F910895EF92FF921F93CF93DF9323
:1008500000D00F92CDB7DEB77C011A82198261E019
:1008600080E80E94DA008B8361E08FEF0E94DA005B
:10087000182F60E080E00E94DA00182360912202C5
:1008800081E90E94DA00182361E080E00E94DA002A
:10089000182360E08FEF0E94DA00182360E080E800
:1008A0000E94DA0021E09B81911101C020E0182311
:1008B000812F90E08223892B51F480E00F900F90DC
:1008C0000F90DF91CF911F91FF90EF90089561E01D
:1008D00080E00E94DA00811581F3BE016E5F7F4FD8
:1008E00080E00E948000811541F38A8180FDF5CF70
:1008F000BE016F5F7F4F83E10E9480008115E9F2A6
:1009000089818770A9F3B7018EE10E94A700811544
:10091000A1F261E08BE00E94DA00811571F2F7012B
:10092000808191818E5F9F41029710F081E0C6CF58
:100930008EEF9FE180839183F9CF00D0CDB7DEB7F2
:1009400019821A820E945B011092B9008DE0809397
:10095000B800529A5A982FEF39E688E1215030407A
:100960008040E1F700C000008DE691E09F938F93F7
:100970000E94040588E791E09F938F9381E891E0BE
:100980009F938F938DE891E09F938F9384E991E0FB
:100990009F938F930E9404050E94F4000E94E5013A
:1009A0000FB6F894DEBF0FBECDBF811541F184EDC7
:1009B00091E00E94210505E112E0CE0101960E941E
:1009C00023048115F9F08A818F9389818F931F9376
:1009D0000F930E9404050F900F900F900F90898144
:1009E0009A818436910570F45A9A3FEF81EE94E033
:1009F000315080409040E1F700C00000DECF86EF2C
:100A000091E0D7CF5A98F1CFA0E0B0E0EAE0F5E06E
:100A10000C94FF07AE014B5F5F4FFA01619171913A
:100A2000AF0180912502909126020E944D05E2E0DF
:100A30000C941B0860912502709126020E944807C1
:100A400008950F931F93CF93DF93E0912502F091C8
:100A500026022381EC0100E010E021FD0EC00FEF23
:100A60001FEFC801DF91CF911F910F91089521963B
:100A70000995892B11F00FEF1FEF888160912502F6
:100A800070912602DB011896ED91FD918111EFCF57
:100A90008AE00995892B29F3E2CFACE0B0E0E3E5E9
:100AA000F5E00C94F2075C016B017A01FC011682FF
:100AB0001782838181FFD3C12AE0522EF501238161
:100AC000F60123FD859123FF81916F01811509F4C2
:100AD0002CC1853239F423FD959123FF91916F014B
:100AE000953229F4B50190E00E944807E7CF30E045
:100AF000712C00E010E0103210F59B32C9F050F478
:100B00009032B9F09332C9F09E3261F516FD0DC1F5
:100B1000106405C09D3279F0903399F41160F601AC
:100B200023FD959123FF91916F019111E4CF23C093
:100B300012601460F4CF1860F2CF1061F0CF17FD8F
:100B40001AC080ED890F8A30F8F616FF05C0759C33
:100B5000800D1124782EE3CF059D800D1124082FE0
:100B60001062DDCF9C3611F41068D9CF9C3409F4A3
:100B700040C09836A1F2892F8F7D85548330D8F1FB
:100B8000933609F45FC0933709F46AC0933509F4CA
:100B900076C0943619F0993609F0A2C0F70117FF14
:100BA00098C061917191819191917F011F7697FF1A
:100BB00003C00E94E70710682AE030E04E014FEFC3
:100BC000841A940AA4010E948907682E681816FFE7
:100BD000D2C0812F8E7F671408F0CCC014FF1DC1D6
:100BE00012FD11C11E7E972C812F867809F4CEC08C
:100BF0000FC131E094CF311509F1F8E0EF0EF11C8F
:100C00008FE3898391E0692E712C4E018FEF881A52
:100C1000980A1F7713FD04C06016710408F43FC0E2
:100C20006114710409F042C0011509F447CFB50100
:100C300080E290E00E9448070150F6CF44E0E40EC5
:100C4000F11CDECFF70180818983F2E0EF0EF11C09
:100C500081E0682E712C4E014FEF841A940AD9CF8F
:100C6000F701819091907F01672D70E016FD02C021
:100C70006FEF7FEFC4010E943D073C01CACFF7012F
:100C8000819091907F01672D70E016FD02C06FEF9B
:100C90007FEFC4010E9432073C011068BBCFB50151
:100CA00080E290E00E9448070150B6CFF40117FDA2
:100CB000859117FF81914F01B50190E00E9448078F
:100CC00081E0011101C080E0081BF1E06F1A71089A
:100CD000A7CF61917191872F880F880B982F65CFCF
:100CE0009537C9F41F7E1C872AE030E0FC85F7FFAA
:100CF0003BC0F70161917191819191917F014E010A
:100D00004FEF841A940AA4010E948907682E68187C
:100D10001C851F775CCF812F897F8C87903799F056
:100D200058F49835B9F09F36E1F0F5018681978146
:100D30002C96EFE00C940E089837B9F714FD06C016
:100D400020E130E0D3CF9C8590619C87EC85E46006
:100D5000EC87F6CF14FF02C016601C8720E132E05A
:100D6000C5CF28E030E0C2CFF7016191719180E0FA
:100D700090E0C4CF182F962C14FF36CFFE01E60D5D
:100D8000F11D8081803309F041C0197E13FD0EC032
:100D900010FF4FC0762C901618F4700E7918902E14
:100DA000802F8919091508F480E0980E901608F034
:100DB00042C0091914FF41C0B50180E390E00E94D0
:100DC000480712FF09C088E590E011FD02C088E7DE
:100DD00090E0B5010E9448076714D0F14E018FEFF3
:100DE000881A980A6A94FE013296E60DF11D3F01B9
:100DF000F30182913F01B50190E00E944807681419
:100E00007904B1F711CF972C182FB8CF12FD02C07B
:100E10009394BCCF93949394B9CF972C182FE4CE8E
:100E2000B50180E290E00E94480783948016C0F3E9
:100E3000B7CF892CFBCF00E0BDCF812F867861F240
:100E400080E211FD8BE217FD8DE2B50190E0C2CF8B
:100E5000B50180E390E00E9448077A94BDCF8FEF00
:100E60009FEF66CFFC010590615070400110D8F7EC
:100E7000809590958E0F9F1F0895FC0161507040E2
:100E800001900110D8F7809590958E0F9F1F0895BF
:100E9000A3E0B0E0EEE4F7E00C94FE07182F99838E
:100EA0006A837B83DB0113968C9181FD09C01FEF60
:100EB000BFEFB983812F99812396E3E00C941A0840
:100EC00082FF1BC0EA81FB81268137818481958165
:100ED0002817390754F40190F081E02DCF010196D5
:100EE000AA81BB818D939D931083EA81FB818681CA
:100EF0009781019686839783DDCFAA81BB8118965F
:100F0000ED91FD911A97BD01812F0995892B69F308
:100F1000CECFFA01AA27283051F1203181F1E8948F
:100F20006F936E7F6E5F7F4F8F4F9F4FAF4FB1E0DC
:100F30003ED0B4E03CD0670F781F891F9A1FA11DD7
:100F4000680F791F8A1F911DA11D6A0F711D811DD8
:100F5000911DA11D20D009F468943F912AE0269F9D
:100F600011243019305D3193DEF6CF010895462FFC
:100F70004770405D4193B3E00FD0C9F7F6CF462FDD
:100F80004F70405D4A3318F0495D31FD4052419346
:100F900002D0A9F7EACFB4E0A69597958795779503
:100FA0006795BA95C9F700976105710508959B018A
:100FB000AC010A2E06945795479537952795BA9513
:100FC000C9F7620F731F841F951FA01D0895909588
:100FD0008095709561957F4F8F4F9F4F08952F9209
:100FE0003F924F925F926F927F928F929F92AF92B9
:100FF000BF92CF92DF92EF92FF920F931F93CF9306
:10100000DF93CDB7DEB7CA1BDB0B0FB6F894DEBF9C
:101010000FBECDBF09942A88398848885F846E84C2
:101020007D848C849B84AA84B984C884DF80EE800C
:10103000FD800C811B81AA81B981CE0FD11D0FB615
:10104000F894DEBF0FBECDBFED010895F894FFCF39
:1010500000000002000000007F0100000000526557
:10106000672830786330293A203078253032780A82
:10107000005265672830786331293A20307825306E
:1010800032780A005265672830786332293A203076
:1010900078253032780A0052656728307835312952
:1010A0003A203078253034780A0052656728307845
:1010B0003631293A203078253034780A001B5B32EB
:1010C0004A1B5B313B31480031383A32383A3433CD
:1010D000004D61722031332032303236006D61694B
:1010E0006E2E630041544D6567613332385020766F
:1010F0006C35336C307820746573742070726F6750
:1011000072616D0D0A46696C653A2025730D0A43BC
:101110006F6D70696C65643A2025732C2025730D02
:101120000A0D0A00564C35334C307820696E6974CC
:1011300069616C697A6174696F6E20737563636548
:10114000656465642E00564C35334C307820696EEA
:10115000697469616C697A6174696F6E206661692E
:101160006C65642E00443A2025347520286D6D2965
:021170000D0070
:00000001FF
