:100000000C9434000C9451000C9451000C94510049
:100010000C9451000C9451000C9451000C9451001C
:100020000C9451000C9451000C9451000C9451000C
:100030000C9451000C9451000C9451000C945100FC
:100040000C9451000C9451000C9451000C945100EC
:100050000C9451000C9451000C9451000C945100DC
:100060000C9451000C94510011241FBECFEFD8E026
:10007000DEBFCDBF12E0A0E0B1E0EAE9F2E102C0EC
:1000800005900D92AE3DB107D9F722E0AEEDB2E09A
:1000900001C01D92A43EB207E1F70E94E7040C9450
:1000A0004B090C94000084EA8093BC008091BC0052
:1000B00087FFFCCF089584E98093BC008091BC0049
:1000C00084FDFCCF08958093BB0084E88093BC003E
:1000D0008091BC0087FFFCCF0895CF93DF9300D0C1
:1000E0000F92CDB7DEB789836A834B830E9453009A
:1000F0008981880F0E9463008A810E9463008B813E
:100100000E9463000F900F900F90DF91CF910C949D
:100110005B00CF93DF9300D000D0CDB7DEB78C83E8
:1001200069834A835B830E9453008C81880F8C8390
:100130000E94630089810E9463000E945B000E940C
:1001400053008C8181600E94630084E88093BC002E
:100150008091BC0087FFFCCF8091BB00EA81FB81CE
:1001600080830F900F900F900F90DF91CF910C94A0
:100170005B000F931F93CF93DF9300D0CDB7DEB713
:100180008C016130710569F141E081E48A8361E0AD
:10019000F80180810E946D004A8160E0F801808151
:1001A0000E946D00AE014F5F5F4F63E1F8018081F7
:1001B0000E94890089818770A9F341E06BE0F80112
:1001C00080810E946D0040E060E0F80180810E9423
:1001D0006D0081E00F900F90DF91CF911F910F91F3
:1001E000089542E0E1E0EA83D2CFEF92FF920F93CD
:1001F0001F93CF93DF930F92CDB7DEB78C01AE0183
:100200004F5F5F4F60ECFC0180810E948900898113
:100210008E3E09F05AC2AE014F5F5F4F69E8F801A8
:1002200080810E9489004981416069E8F8018081EC
:100230000E946D0040E068E8F80180810E946D0036
:1002400041E060E8F80180810E946D0041E06FEFBD
:10025000F80180810E946D0040E060E0F80181912A
:100260007F010E946D00A70161E9F80180810E9471
:10027000890041E060E0F80180810E946D0040E06B
:100280006FEFF80180810E946D0040E060E8F801A6
:1002900080810E946D0041E06FEFF80180810E9433
:1002A0006D0040E060E0F80180810E946D0040E058
:1002B0006FEFF80180810E946D0040E069E0F80175
:1002C00080810E946D0040E060E1F80180810E9421
:1002D0006D0040E061E1F80180810E946D0041E025
:1002E00064E2F80180810E946D004FEF65E2F80141
:1002F00080810E946D0040E065E7F80180810E94E6
:100300006D0041E06FEFF80180810E946D004CE2CA
:100310006EE4F80180810E946D0040E068E4F8011D
:1003200080810E946D0040E260E3F80180810E94BC
:100330006D0040E06FEFF80180810E946D0049E0A0
:1003400060E3F80180810E946D0040E064E5F801FF
:1003500080810E946D0044E061E3F80180810E9489
:100360006D0043E062E3F80180810E946D0043E884
:1003700060E4F80180810E946D0045E266E4F801C6
:1003800080810E946D0040E060E6F80180810E945B
:100390006D0040E067E2F80180810E946D0046E058
:1003A00060E5F80180810E946D0040E061E5F801A0
:1003B00080810E946D0046E962E5F80180810E941B
:1003C0006D0048E066E5F80180810E946D0040E321
:1003D00067E5F80180810E946D0040E061E6F80168
:1003E00080810E946D0040E062E6F80180810E94F9
:1003F0006D0040E064E6F80180810E946D0040E0FD
:1004000065E6F80180810E946D0040EA66E6F80129
:1004100080810E946D0041E06FEFF80180810E94B1
:100420006D0042E362E2F80180810E946D0044E1C8
:1004300067E4F80180810E946D004FEF69E4F801E4
:1004400080810E946D0040E06AE4F80180810E9492
:100450006D0040E06FEFF80180810E946D004AE07E
:100460006AE7F80180810E946D0040E06BE7F801C7
:1004700080810E946D0041E268E7F80180810E945E
:100480006D0041E06FEFF80180810E946D0044E350
:1004900063E2F80180810E946D0040E062E4F801AF
:1004A00080810E946D004FEF64E4F80180810E941A
:1004B0006D0046E265E4F80180810E946D0045E030
:1004C00066E4F80180810E946D0040E460E4F80178
:1004D00080810E946D0046E06EE0F80180810E94FC
:1004E0006D004AE160E2F80180810E946D0040E405
:1004F00063E4F80180810E946D0040E06FEFF80135
:1005000080810E946D0043E064E3F80180810E94D5
:100510006D0044E465E3F80180810E946D0041E0D4
:100520006FEFF80180810E946D0044E061E3F80103
:1005300080810E946D0049E06BE4F80180810E9497
:100540006D0045E06CE4F80180810E946D0044E09C
:100550006DE4F80180810E946D0040E06FEFF801CA
:1005600080810E946D0040E064E4F80180810E9477
:100570006D0040E265E4F80180810E946D0048E072
:1005800067E4F80180810E946D0048E268E4F801A8
:1005900080810E946D0040E067E6F80180810E9442
:1005A0006D0044E060E7F80180810E946D0041E049
:1005B00061E7F80180810E946D004EEF62E7F8016B
:1005C00080810E946D0040E066E7F80180810E9412
:1005D0006D0040E067E7F80180810E946D0041E016
:1005E0006FEFF80180810E946D0041E06DE0F8013D
:1005F00080810E946D0040E06FEFF80180810E94D1
:100600006D0041E060E8F80180810E946D0048EFD4
:1006100061E0F80180810E946D0041E06FEFF80118
:1006200080810E946D0041E06EE8F80180810E94A7
:100630006D0041E060E0F80180810E946D0040E0C3
:100640006FEFF80180810E946D0040E060E8F801E2
:1006500080810E946D0044E06AE0F80180810E9480
:100660006D00AE014F5F5F4F64E8F80180810E942A
:10067000890049814F7E64E8F80180810E946D0005
:1006800041E06BE0F80180810E946D0048EE61E07E
:10069000F80180810E946D0060E070E0C8010E9456
:1006A000B90061E070E0C8010E94B90048EE61E065
:1006B000F80180810E946D0081E00F90DF91CF9161
:1006C0001F910F91FF90EF90089580E0F6CF1F9358
:1006D000CF93DF9300D00F92CDB7DEB7182F698389
:1006E0004A835B830E945300110F812F0E94630095
:1006F00089810E9463000E945B000E945300812F49
:1007000081600E94630084EC8093BC008091BC00F7
:1007100087FFFCCF8091BB00EA81FB81108281833F
:1007200084E88093BC008091BC0087FFFCCF2091BF
:10073000BB00EA81FB8180819181822B8083918340
:100740000F900F900F90DF91CF911F910C945B0051
:100750000F931F93CF93DF9300D00F92CDB7DEB7E7
:100760008C0119821A82FC0180811F928F937F93E2
:100770006F938EE091E09F938F930E943006AE01BD
:100780004D5F5F4F60ECF80180810E9489008B8192
:100790001F928F938BE191E09F938F930E9430067D
:1007A000AE014D5F5F4F61ECF80180810E948900CE
:1007B0008B811F928F9380E391E09F938F930E9490
:1007C0003006AE014D5F5F4F62ECF80180810E9400
:1007D00089008B811F928F9385E491E09F938F9383
:1007E0000E943006AE014F5F5F4F61E5F8018081E6
:1007F0000E9467038A818F9389818F938AE591E0B4
:100800009F938F930E943006AE014F5F5F4F61E66A
:10081000F80180810E9467038A818F9389818F9379
:100820008FE691E09F938F930E9430060FB6F89465
:10083000DEBF0FBECDBF0F900F900F90DF91CF9115
:100840001F910F910895EF92FF920F931F93CF93F3
:10085000DF9300D0CDB7DEB78C017B0141E060E8CB
:10086000FC0180810E946D0041E06FEFF801808102
:100870000E946D0040E060E0F80180810E946D0000
:10088000F801418161E980810E946D0041E060E0F2
:10089000F80180810E946D0040E06FEFF8018081D7
:1008A0000E946D0040E060E8F80180810E946D00C8
:1008B00041E060E0F80180810E946D00AE014E5F72
:1008C0005F4F60E0F80180810E9489008A8180FD8D
:1008D000F5CFAE014F5F5F4F63E1F80180810E9469
:1008E000890089818770A9F3A7016EE1F8018081F1
:1008F0000E94670341E06BE0F80180810E946D0077
:10090000F701808191818E5F9F41029720F48EEFE5
:100910009FE18083918381E00F900F90DF91CF91D1
:100920001F910F91FF90EF90089580E091E08093E8
:10093000E0029093E102519A50981092C50080E134
:100940008093C400E1ECF0E0808188608083808146
:100950008061808386E08093C200E0EC80818260C9
:10096000808308959091C00095FFFCCF8093C600CE
:100970000895CF93DF930F92CDB7DEB789838A3086
:1009800019F48DE00E94B20489810E94B20480E0D3
:1009900090E00F90DF91CF9108958091C00087FF84
:1009A000FCCF8091C60008958091C00087FB882706
:1009B00080F90895CF93DF93EC018881811103C002
:1009C000DF91CF91089521960E94B204F6CFCDB762
:1009D000DEB72A970FB6F894DEBF0FBECDBF89E20F
:1009E0008F8318868D831E821B821C8219821A8235
:1009F0000E9495041092B9008DE08093B800529A3D
:100A00005A98579A5F982898209A2998219A2FEFF8
:100A100039E688E1215030408040E1F700C0000015
:100A200085E891E09F938F930E94300680E991E0E2
:100A30000E9446068EEA91E00E9446068EEC91E006
:100A40000E94460685EF91E09F938F938CEF91E093
:100A50009F938F930E94300687E092E09F938F933D
:100A600080E192E09F938F938CE192E09F938F932C
:100A70000E9430068FE39CE90197F1F700C0000067
:100A8000289820988FE39CE90197F1F700C00000B7
:100A90008E01075F1F4FA80160EC8F810E948900C3
:100AA00089850FB6F894DEBF0FBECDBF0A87012F30
:100AB0008E3E09F070C04AE26AE88F810E946D00A4
:100AC0008AE28F83CE0107960E94F500182F8115C8
:100AD00009F461C08F811F928F9381E392E09F930D
:100AE0008F930E94300669E472E0CE0107960E945F
:100AF000A8030F900F900F900F90299821988FE3E3
:100B00009CE90197F1F700C000004A85502F60EC86
:100B10008D810E94890089858E3E09F042C04BE29A
:100B20006AE88D810E946D008BE28D83CE0105966F
:100B30000E94F500082F8115A1F18D811F928F93DE
:100B40008FE592E09F938F930E94300667E772E0F3
:100B5000CE0105960E94A8030F900F900F900F9062
:100B6000111509F46FC0BE016D5F7F4FCE0107966E
:100B70000E94230480E00115D1F0BE016F5F7F4F1A
:100B8000CE0105960E942304812F111110C081E02F
:100B90005A9890E013C08EE492E00E94460610E05E
:100BA000ACCF8CE792E00E94460600E0D9CF2B81C3
:100BB0003C8124363105D8F45A9A91E08115D9F058
:100BC00029813A8125363105A0F05F9A8A819111F9
:100BD0001CC08F9389818F932DE832E03F932F9330
:100BE0000E9430060F900F900F900F9021C05A98DE
:100BF000E4CF5F98EBCF5F98911549F18C818F938B
:100C00008B818F9327EB32E0E9CF8F9389818F938C
:100C10008C818F938B818F9321EA32E03F932F93C6
:100C20000E9430060F900F900F900F900F900F9032
:100C30009FEF21EE34E0915020403040E1F700C0BA
:100C400000008ECF80E0011509F4A2CF96CF8BEC87
:100C500092E09F938F930E9430060F900F90E8CF01
:100C6000A0E0B0E0E6E3F6E00C942409AE014B5FAF
:100C70005F4FFA0161917191AF018091E002909113
:100C8000E1020E947206E2E00C9440090F931F9368
:100C9000CF93DF93E091E002F091E1022381EC0138
:100CA00000E010E021FD0EC00FEF1FEFC801DF9143
:100CB000CF911F910F91089521960995892B11F0DD
:100CC0000FEF1FEF88816091E0027091E102DB017C
:100CD0001896ED91FD918111EFCF8AE00995892B4E
:100CE00029F3E2CFACE0B0E0E8E7F6E00C941709B6
:100CF0005C016B017A01FC0116821782838181FFFE
:100D0000D3C12AE0522EF5012381F60123FD8591FE
:100D100023FF81916F01811509F42CC1853239F4CB
:100D200023FD959123FF91916F01953229F4B5012F
:100D300090E00E946D08E7CF30E0712C00E010E0F9
:100D4000103210F59B32C9F050F49032B9F0933262
:100D5000C9F09E3261F516FD0DC1106405C09D32CB
:100D600079F0903399F41160F60123FD959123FFFA
:100D700091916F019111E4CF23C012601460F4CF00
:100D80001860F2CF1061F0CF17FD1AC080ED890F07
:100D90008A30F8F616FF05C0759C800D1124782E58
:100DA000E3CF059D800D1124082F1062DDCF9C3606
:100DB00011F41068D9CF9C3409F440C09836A1F2E0
:100DC000892F8F7D85548330D8F1933609F45FC025
:100DD000933709F46AC0933509F476C0943619F054
:100DE000993609F0A2C0F70117FF98C0619171917F
:100DF000819191917F011F7697FF03C00E940C099A
:100E000010682AE030E04E014FEF841A940AA401E2
:100E10000E94AE08682E681816FFD2C0812F8E7F00
:100E2000671408F0CCC014FF1DC112FD11C11E7E55
:100E3000972C812F867809F4CEC00FC131E094CF72
:100E4000311509F1F8E0EF0EF11C8FE3898391E091
:100E5000692E712C4E018FEF881A980A1F7713FDA7
:100E600004C06016710408F43FC06114710409F0F5
:100E700042C0011509F447CFB50180E290E00E941D
:100E80006D080150F6CF44E0E40EF11CDECFF7010F
:100E900080818983F2E0EF0EF11C81E0682E712CD5
:100EA0004E014FEF841A940AD9CFF70181909190A7
:100EB0007F01672D70E016FD02C06FEF7FEFC40168
:100EC0000E9462083C01CACFF701819091907F0196
:100ED000672D70E016FD02C06FEF7FEFC4010E9426
:100EE00057083C011068BBCFB50180E290E00E943A
:100EF0006D080150B6CFF40117FD859117FF819160
:100F00004F01B50190E00E946D0881E0011101C020
:100F100080E0081BF1E06F1A7108A7CF6191719111
:100F2000872F880F880B982F65CF9537C9F41F7EC0
:100F30001C872AE030E0FC85F7FF3BC0F701619198
:100F40007191819191917F014E014FEF841A940A22
:100F5000A4010E94AE08682E68181C851F775CCF1C
:100F6000812F897F8C87903799F058F49835B9F0A4
:100F70009F36E1F0F501868197812C96EFE00C9485
:100F800033099837B9F714FD06C020E130E0D3CF1C
:100F90009C8590619C87EC85E460EC87F6CF14FF1C
:100FA00002C016601C8720E132E0C5CF28E030E0A7
:100FB000C2CFF7016191719180E090E0C4CF182F0A
:100FC000962C14FF36CFFE01E60DF11D8081803393
:100FD00009F041C0197E13FD0EC010FF4FC0762CE2
:100FE000901618F4700E7918902E802F8919091513
:100FF00008F480E0980E901608F042C0091914FF1A
:1010000041C0B50180E390E00E946D0812FF09C065
:1010100088E590E011FD02C088E790E0B5010E94EC
:101020006D086714D0F14E018FEF881A980A6A9400
:10103000FE013296E60DF11D3F01F30182913F0161
:10104000B50190E00E946D0868147904B1F711CFE2
:10105000972C182FB8CF12FD02C09394BCCF939455
:101060009394B9CF972C182FE4CEB50180E290E08D
:101070000E946D0883948016C0F3B7CF892CFBCFF4
:1010800000E0BDCF812F867861F280E211FD8BE216
:1010900017FD8DE2B50190E0C2CFB50180E390E08D
:1010A0000E946D087A94BDCF8FEF9FEF66CFFC0151
:1010B0000590615070400110D8F7809590958E0F83
:1010C0009F1F0895FC016150704001900110D8F7F6
:1010D000809590958E0F9F1F0895A3E0B0E0E3E701
:1010E000F8E00C942309182F99836A837B83DB0132
:1010F00013968C9181FD09C01FEFBFEFB983812F3B
:1011000099812396E3E00C943F0982FF1BC0EA819A
:10111000FB8126813781848195812817390754F412
:101120000190F081E02DCF010196AA81BB818D93C2
:101130009D931083EA81FB81868197810196868346
:101140009783DDCFAA81BB811896ED91FD911A9707
:10115000BD01812F0995892B69F3CECFFA01AA270A
:10116000283051F1203181F1E8946F936E7F6E5FEA
:101170007F4F8F4F9F4FAF4FB1E03ED0B4E03CD098
:10118000670F781F891F9A1FA11D680F791F8A1F7B
:10119000911DA11D6A0F711D811D911DA11D20D0E2
:1011A00009F468943F912AE0269F11243019305D9C
:1011B0003193DEF6CF010895462F4770405D41938D
:1011C000B3E00FD0C9F7F6CF462F4F70405D4A33DA
:1011D00018F0495D31FD4052419302D0A9F7EACFA2
:1011E000B4E0A6959795879577956795BA95C9F7D1
:1011F00000976105710508959B01AC010A2E0694C4
:101200005795479537952795BA95C9F7620F731F7C
:10121000841F951FA01D08959095809570956195E8
:101220007F4F8F4F9F4F08952F923F924F925F9223
:101230006F927F928F929F92AF92BF92CF92DF92E6
:10124000EF92FF920F931F93CF93DF93CDB7DEB74B
:10125000CA1BDB0B0FB6F894DEBF0FBECDBF0994DF
:101260002A88398848885F846E847D848C849B8436
:10127000AA84B984C884DF80EE80FD800C811B8144
:10128000AA81B981CE0FD11D0FB6F894DEBF0FBE73
:0A129000CDBFED010895F894FFCFE3
:10129A000000000200000000B904000000002573ED
:1012AA002040203078253032580A002020526567C5
:1012BA002830784330293A203078253032780A00AD
:1012CA0020205265672830784331293A2030782522
:1012DA003032780A00202052656728307843322954
:1012EA003A203078253032780A0020205265672863
:1012FA0030783531293A203078253034780A002080
:10130A00205265672830783631293A2030782530DE
:10131A0034780A0A001B5B324A1B5B313B314800B6
:10132A0041544D65676133323850206475616C20D1
:10133A00564C35334C305820746573740D00544F35
:10134A0046312058534855543D5042302C20544F72
:10135A0046322058534855543D5042310D004C45B1
:10136A0044313D50443220283C313030206D6D29C3
:10137A002C204C4544323D50443720283E31302001
:10138A006D6D290D006D61696E2E630046696C658D
:10139A003A2025730D0A0031343A30363A31340096
:1013AA004D6172203136203230323600436F6D7013
:1013BA00696C65643A2025732C2025730D0A0D0A81
:1013CA0000544F463120696E6974204F4B20617476
:1013DA00203078253032580A00544F463100544F95
:1013EA00463120696E6974204641494C454400548F
:1013FA004F463220696E6974204F4B206174203049
:10140A0078253032580A00544F463200544F46323B
:10141A0020696E6974204641494C45440044313A7A
:10142A0045525220202044323A253475206D6D0DE4
:10143A000044313A253475206D6D202044323A2516
:10144A003475206D6D0D0044313A253475206D6D6B
:10145A00202044323A455252200D0044313A455236
:0E146A005220202044323A455252200D0000FC
:00000001FF
